:020000040800F2
:10000000180F002001010008C52500086B2000081A
:10001000C3250008110B0008A92B000800000000F0
:10002000000000000000000000000000FD260008A5
:10003000130B000800000000C72500084129000834
:100040001B0100081B0100081B0100081B01000820
:100050001B0100081B010008150B00081B0100080C
:100060001B0100081B0100081B0100081B01000800
:100070001B0100081B0100081B0100081B010008F0
:100080001B0100081B0100081B0100081B010008E0
:100090001B0100081B0100081B0100081B010008D0
:1000A0001B010008A92900081B0100081B0100080A
:1000B0001B0100081B0100081B0100081B010008B0
:1000C0001B0100081B0100081B0100081B010008A0
:1000D0001B0100081B0100081B0100081B01000890
:1000E0001B0100081B0100081B010008DFF80CD0F1
:1000F00000F08CFC00480047FD410008180F00206C
:100100000648804706480047FEE7FEE7FEE7FEE7B1
:10011000FEE7FEE7FEE7FEE7FEE7FEE7A5290008AB
:10012000ED000008202A04DB203A21FA02F0002129
:10013000704721FA02F3D040C2F1200291400843F7
:1001400019467047D2B201E000F8012B491EFBD2DC
:1001500070470022F6E710B513460A4604461946D2
:10016000FFF7F0FF204610BDF0B480EA0102D40F83
:100170004200B2EB410F02D20246084611464A0045
:1001800042D0C30DDDB2C1F3C752AD1A202D35DA0E
:10019000C1F3160141F4000204B15242C5F1200638
:1001A00002FA06F12A411044B3EBD05F23D0C4B168
:1001B000012DA0EBC35009DCF0BC4FF0004202EA75
:1001C000C352DBB200F5000000F065BB400000F157
:1001D000807000EBC350A0F1807040EAD1704900FC
:1001E00009E0490841EAC071A0EBC35000F50000E6
:1001F000400800EBC350F0BC00F044BB6142012258
:1002000002EB4101001BF6E7F0BC704781F00041B2
:10021000AAE780F00040A7E780EA010210B502F0EB
:100220000043400022D04A001FD0010E01EB1261B2
:10023000C0F35600C2F3560240F4000042F400023C
:10024000A0FB022000047F39140400D0401C50EAB7
:10025000124001D44000491EC2B20C0604EBD0107B
:10026000401C4008802A02D003E0002010BD20F08E
:100270000100002900DA0020184310BD30B480EAE4
:10028000010202F0004530F0004221F0004013D09E
:1002900090B1C30DD40DC2F31601C0F31600E41AD9
:1002A00041F4000140F400027D34914201D3641C0A
:1002B00000E04900002C02DA30BC002070474FF407
:1002C00000000023914201D3891A034340084FEAFA
:1002D0004101F7D151B1914202D14FF0004105E007
:1002E00002D24FF0010101E06FF0010103EBC450B5
:1002F000284430BC00F0C6BA2DE9FE4F804681EAA2
:100300000300C00F0C46009021F0004123F000458F
:10031000B8EB0200A94105D24046214690461C4652
:100320000B46024623F00040104347D0270DC7F389
:100330000A00C3F30A510290401A019040286BDA78
:10034000C3F3130040F4801B0098924620B10023B1
:10035000D2EB030A63EB0B0B01985946C0F1400244
:10036000504600F06EFA06460D4650465946019A30
:1003700000F076FA10EB08006141002487EA115280
:1003800084EAE7731A4340D0009A62B3019A012AC3
:100390004FEA075215DC001B61EB02014FF00042EF
:1003A00002EA0752CDE90042001C41F580113246B5
:1003B0002B4600F0ADFA03B0BDE8F08F4046214671
:1003C000F9E7001B61EB0201001C41F580130018E6
:1003D0005B412018A2F5001747EB030140EAD570F6
:1003E000B6196D4111E06D084FEA360645EAC07551
:1003F0004FEA0752001B61EB0201001C41F580111E
:1004000049084FEA30000019514132462B4603B0EB
:10041000BDE8F04F00F06DBA0098012240000023C3
:10042000D0EB020263EBE073009821464FEAE074E0
:10043000B8EB000061EB0401E9E783F000435BE700
:1004400081F0004158E72DE9FE4F81EA030404F0F2
:10045000004421F0004100944FF0000B23F00043D2
:1004600050EA01045ED052EA03045BD0C3F30A549D
:10047000C1F30A552C44A4F2F3340194A0FB0254B6
:10048000C1F3130141F48011C3F3130343F4801348
:1004900001FB024400FB034E840A970A44EA81549C
:1004A00047EA8357A4FB076802958D0A05FB078579
:1004B0004FEA932C04FB0C542705029D4FEA065883
:1004C00047EA1637B5EB08056EEB070C870E920E60
:1004D00047EA811742EA8312A7FB0201B6EB0B0140
:1004E00064EB00042B0D43EA0C335E1844EB1C5004
:1004F000DA465146E7FB0201C5F313044FEA0B331A
:1005000043EA14534FEA0432019C43EA0603A4F180
:100510000C040294009CCDE900B400F0F9F903B09A
:10052000BDE8F08F00200146F9E72DE9F04D81EAA2
:10053000030404F0004B21F0004514464FF0000A7C
:1005400023F0004150EA050220D054EA01021DD0F8
:10055000C5F30A570246C5F31303C1F31300C1F3F1
:100560000A5640F4801543F48013A7EB0608101BCD
:10057000D64608F2FD3873EB050002D308F10108F6
:1005800001E092185B41B8F1000F03DA0020014648
:10059000BDE8F08D00204FF48011064684460EE041
:1005A000171B73EB050705D3121B63EB050306430B
:1005B0004CEA010C49084FEA300092185B4150EABE
:1005C0000107EDD152EA030012D082EA040083EA67
:1005D0000501084305D0101BAB4106D201220023C0
:1005E00006E000224FF0004302E06FF001025310DA
:1005F0001AEB06004CEB085110EB0A0041EB0B0123
:10060000BDE8F04D00F075B970B521F0004303432B
:100610000CD0C1F30A550024D5EB040564EB0403A8
:10062000D617AD1AB34102DB0020014670BD201879
:1006300041EB025170BDC10F80EAE0700844CA0767
:100640009623002100F027B90EB540F23341029104
:100650000021CDE900110A460B4600F059F903B01C
:1006600000BD3EB5CA17CB0F002450405140C01802
:100670006141DA0740F233430094CDE90123224679
:10068000234600F045F903B030BD70B5C1F30A52FE
:1006900001F000450024C1F3130140F2FF3341F49F
:1006A00080119A4201DA002070BD40F233439A4231
:1006B000A2F2334203DC5242FFF734FD00E09040E7
:1006C0002C43F1D0404270BD70B5C1F30A5201F025
:1006D00000450024C1F3130140F2FF3341F48011BF
:1006E0009A4202DA0020014670BD40F233439A423A
:1006F000A2F2334203DC5242FFF714FD01E000F0A6
:10070000A0F82C43F0D00023D0EB030063EB0101F1
:1007100070BD00F0004230F000400AD0C10D01F57C
:100720006071C0F3160042EA0151C208400711434C
:10073000704700200146704730B5041E71F1000477
:1007400004DB4FF00044404264EB0101141E73F1DE
:10075000000405DB1C464FF00043524263EB0403E8
:100760008B4208BF824230BD01F0004330B421F01B
:10077000004150EA010206D00A0DA2F56072C1F3F1
:100780001301002A02DC30BC00207047440F44EA09
:10079000C104C100E01830BC00EBC25000F072B8D8
:1007A000002801DBC0F10040002901DBC1F100415C
:1007B0008842704730B50B460146002020220124B4
:1007C00009E021FA02F59D4205D303FA02F5491B1F
:1007D00004FA02F52844151EA2F10102F1DC30BD35
:1007E0002DE9F05F0546002092469B468846064666
:1007F000814640241BE02846414647462246FFF7F3
:1008000091FC53465A46C01A914110D311461846DE
:10081000224600F016F82D1A67EB01084F462246D3
:100820000120002100F00DF817EB00094E41201EB9
:10083000A4F10104DFDC484631462A464346BDE8C0
:10084000F09F202A04DB203A00FA02F100207047D2
:100850009140C2F1200320FA03F3194390407047FE
:10086000202A06DBCB17203A41FA02F043EAE07374
:1008700006E041FA02F3D040C2F120029140084361
:10088000194670470029A8BF7047401C490008BF9F
:1008900020F00100704710B4B0FA80FC00FA0CF0B0
:1008A00050EA010404BF10BC704749B1CCF12004E8
:1008B00021FA04F411FA0CF118BF01212143084375
:1008C000A3EB0C01CB1D4FEA00614FEA102042BFA1
:1008D000002010BC704700EBC35010440029A4BF97
:1008E00010BC7047401C490008BF20F0010010BC3C
:1008F000704710B5141E73F1000408DA401C41F172
:10090000000192185B411A4301D120F0010010BD93
:100910002DE9F04D92469B4611B1B1FA81F202E009
:10092000B0FA80F220329046FFF78BFF04460F4664
:1009300040EA0A0041EA0B0153465A46084313D0E5
:10094000114653EA010019D0C8F140025046FFF7A2
:10095000E9FB05460E46504659464246FFF771FFF1
:10096000084305D0012004E020463946BDE8F08D5B
:100970000020054346EAE0762C4337430A98630596
:10098000E40AA0EB08000022FD0A44EA47540A30BA
:1009900002D500200146E9E7010510196941DDE9AA
:1009A000084500196941BDE8F04DA2E7C1F30A52BC
:1009B000C1F3130140F2FF3341F480119A4202DA8D
:1009C00000200146704740F233439A42A2F233427C
:1009D00002DC5242FFF7A6BBFFF733BF30B5041E5F
:1009E00071F1000404DB4FF00044404264EB01016C
:1009F000141E73F1000405DB1C464FF00043524205
:100A000063EB0403994208BF904230BD064C074D8A
:100A100006E0E06840F0010394E8070098471034CE
:100A2000AC42F6D3FFF766FB1046000830460008DC
:100A300010B503F02DFC01F071FC17A002F0B6F820
:100A4000012003F01FF9012802D118A002F0AEF82E
:100A50001CA002F0ABF801F085FC1E4802F00EFE6F
:100A6000012003F01DFA1B4802F0FDFD4FF2F200D9
:100A700003F072FA022003F0F6F948F2840003F062
:100A800070FA002003F0A0FA0121134803F0F0F9F6
:100A9000BDE8104003F016B868656C6C6F20647791
:100AA0006D31303030210D0A0000000064776D3167
:100AB00030303020696E6974206661696C210D0ADE
:100AC00000000000696E69742070617373210D0A63
:100AD000000000000400002000D003240A48612127
:100AE0000A4B017088214170F221C170F02101711F
:100AF000002181701F221A600222C271017201213D
:100B00004171817170470000C40100200000002085
:100B1000FEE77047012000F029B972B6FEE7000039
:100B20002DE9FC5F00270D4604464E1ECCE000BFB9
:100B30004FF0000BB9461DE0B84615E009FB0580F3
:100B400040B2594654F8200020F000408246FFF79A
:100B500027FE05D201A90DF80790D34601F80780BA
:100B600008F101004FFA80F8B045E7DD09F1010016
:100B70004FFA80F9B145DFDD5846FFF7CAFDDFF8CF
:100B8000C08100224346FFF7B7FB00224346FFF730
:100B9000D3FD02D10020BDE8FC9F1DF90780B845B8
:100BA00014D0002010E000BF07FB05014AB208FB8B
:100BB000050149B254F8223054F821C044F822C04B
:100BC000401C44F8213040B2B042EDDD01A810F9DC
:100BD0000780B84514D0002010E000BF00FB05716D
:100BE0004AB200FB058149B254F8223054F821C0C2
:100BF00044F822C0401C44F8213040B2B042EDDD40
:100C000007FB05704FFA80FB4FF07E5054F82B1015
:100C1000FFF734FB44F82B00002010E0B8450BD060
:100C200007FB05804FFA80F954F82B1054F829007F
:100C3000FFF7F2FA44F8290008F1010040B28046BB
:100C4000B042EBDD002022E0B9451DD0002018E0C5
:100C5000B84513D009FB05804FFA80FA07FB0580E1
:100C600054F8201009FB057054F82000FFF7D4FA5F
:100C700054F82A10FFF7CDFA44F82A0008F10100D1
:100C800040B28046B042E3DD09F1010040B2814646
:100C9000B042D9DD002012E0B8450DD008FB057048
:100CA0004FFA80F954F82B1054F8290080F00040D6
:100CB000FFF7B2FA44F8290008F1010040B280467B
:100CC000B042E9DD7F1C7FB2B7427FF731AF70B22F
:100CD00032E001A911F90080804513D000210FE016
:100CE00000FB051253B208FB051252B254F82370F0
:100CF00054F822C044F823C0491C44F8227049B279
:100D0000B142EDDD1DF90080804513D000210FE0D8
:100D100001FB050253B201FB058252B254F8237065
:100D200054F822C044F823C0491C44F8227049B248
:100D3000B142EDDD401E40B20028CADA01202AE7A8
:100D40000000F03F70B5044600F012F90546601C43
:100D500002D004480078044400F00AF9401BA04285
:100D6000FAD370BD4800002001F0CABC044910B598
:100D70000A68024202D00860FFF7F6FF10BD0000CB
:100D8000140401402DE9F84FDFF8B891002409F16F
:100D9000040A0AF1040B23460F270BF1040EC9E0E5
:100DA0000125A5402A40AA427DD1674ED1F804C052
:100DB000ACEB0608B44532D014DCBCF1030F3AD0DA
:100DC00009DCBCF1000F2AD0BCF1010F1CD0BCF132
:100DD000020F31D11DE0BCF1110F17D0BCF1120F81
:100DE0002AD119E0B8F5881F19D006DCB8F5803F84
:100DF00015D0B8F5801F1FD111E0B8F5001F0ED037
:100E0000B8F5041F18D10AE0CB6815E0CB681B1DAC
:100E100012E0CB6808330FE0CB680C330CE08B6832
:100E20002BB1012B4FF0080303D0456104E00423EC
:100E300002E0056100E00023FF2A01D8064601E038
:100E400000F104064FEA840501D9A5F12005D6F882
:100E5000008007FA05FC28EA0C0803FA05F548EAC1
:100E60000508C6F800804D68ED0062D5374DAE69C3
:100E700046F00106AE61AD6924F0030605F00105F8
:100E80000095334D06EB050CDCF80850A607360F2D
:100E900007FA06F825EA0805DFF8B880404503D1CF
:100EA0004FF0000817E044E0DFF8AC80404502D185
:100EB0004FF001080FE0DFF8A480404502D14FF069
:100EC000020808E0DFF89880404502D14FF003089F
:100ED00001E04FF0040808FA06F848EA0508CCF8E3
:100EE00008804D68D9F80060ED034D4601D51643E2
:100EF00000E096432E604D68DAF80060AD03554679
:100F000001D5164300E096432E604D68DBF8006083
:100F1000ED025D4601D5164300E096432E604D6814
:100F2000DEF80060AD02754601D5164300E0964339
:100F30002E60641C0D682A46E5407FF431AFBDE8A1
:100F4000F88F000000040140000011100010024062
:100F50000000014000080140000C01400010014069
:100F6000001401400AB1016170470904FBE7000069
:100F700001488068704700004800002002488168EE
:100F8000027811448160704748000020074810B57E
:100F9000016841F010010160032000F075F80F2096
:100FA00000F006F800F024F8002010BD00200240F8
:100FB00070B50D4D04464FF47A712878B1FBF0F00E
:100FC0000A490968B1FBF0F000F0D3FD48B9102CD4
:100FD00007D200222146501E00F036F800206C6037
:100FE00070BD012070BD00004800002054000020AA
:100FF0000C4808B5816941F001018161816901F006
:1010000001010091C16941F08051C161C06900F0E6
:10101000805000900448416821F0E06141F0806117
:10102000416008BD0010024000000140002809DBBB
:1010300000F01F02012191404009800000F1E020F2
:10104000C0F8001170470000F0B40E4B1B680C464E
:10105000C3F30223C3F10705042D00D90425191D8C
:10106000072901D2002300E0DB1E012606FA05F164
:10107000491E214099409E40761E16403143F0BCE7
:1010800001F0B8BD0CED00E0064900F00702086869
:101090004FF6FF03184040EA0220034A104308605D
:1010A000704700000CED00E00000FA052DE9F04764
:1010B0000F46050061D0434E306800F00700B8428B
:1010C00009D2306820F0070038433060306800F003
:1010D0000700B84251D128683B4C810712D5400720
:1010E00003D5606840F4E06060602878000703D5AD
:1010F000606840F4605060606068A96820F0F000AB
:10110000084360602878C00728D06868012810D09C
:101110002168022810D0890700292EDA616821F0A1
:10112000030101436160FFF723FF804641F28839E4
:101130000DE021688903EFE78901EDE7FFF718FF6C
:10114000A0EB0801494502D90320BDE8F08760689B
:10115000696800F00C00B0EB810FEFD1306800F04F
:101160000700B8420BD9306820F0070038433060E0
:10117000306800F00700B84201D00120E5E7287888
:10118000400705D56068E96820F4E06008436060C6
:101190002878000706D56068296920F4605040EA85
:1011A000C100606000F038F86168084AC1F30311BB
:1011B000515CC8400649086006480068FFF7F8FE21
:1011C0000020C2E700200240001002404043000817
:1011D000540000204C00002004480549006849687C
:1011E000044AC1F30221515CC840704754000020FA
:1011F000001002405043000804480549006849684F
:10120000044AC1F3C221515CC84070475400002019
:10121000001002405043000813A185B00FC98DE8AB
:101220000F0015A0154A00680490516801F00C00E9
:10123000042804D0082804D0114805B0704711488C
:10124000FBE7C1F38343C9031DF8030009D55168C7
:1012500004AAC1F34041515C0A4A5043B0FBF1F08B
:10126000EBE709494843E8E70203040506070809D4
:101270000A0B0C0D0E0F10100102000000100240AE
:1012800000127A000024F40000093D002DE9F84F17
:10129000040070D02078C04DC00749D06868C0F302
:1012A0008100012807D06868C0F38100022809D1B5
:1012B0006868C00306D52868800339D560680028AF
:1012C000E7D035E06068B0F5803F0BD010B1B0F5E5
:1012D000A02F11D0286820F480302860286820F4DE
:1012E000802002E0286840F480302860606890B177
:1012F000FFF73EFE06460AE0286840F4802028609A
:10130000F0E700BFFFF734FE801B642873D828681D
:101310008003F7D50CE0FFF72BFE064605E000BF83
:10132000FFF726FE801B6428F0D828688003F7D4D6
:1013300020789A4E80074FF001094FF0000839D508
:10134000686810F00C0F07D06868C0F381000228AD
:1013500009D16868C00306D42868800714D52069BD
:10136000012808D110E02069B0B1C6F80090FFF75D
:10137000FFFD074605E00AE1FFF7FAFDC01B022862
:10138000C4D828688007F7D52868616920F0F8007C
:1013900040EAC10028600DE0C6F80080FFF7E8FDD4
:1013A000074604E0FFF7E4FDC01B022823D82868A5
:1013B0008007F7D4207800072CD57948A169D9B1E6
:1013C000C0F80090FFF7D4FD074604E0FFF7D0FD1A
:1013D000C01B02280FD8686A8007F7D571484FF400
:1013E000FA510068B0FBF1F0009000BF0098411E78
:1013F0000091FAD20EE080E0C0F80080FFF7B8FD5F
:10140000074604E0FFF7B4FDC01B022875D8686AE0
:101410008007F7D42078400760D5E8690027C0002E
:1014200008D4E86940F08050E861E869012700F0DD
:10143000805000905C480168C90513D40168834658
:1014400041F480710160FFF793FD824606E000BF22
:10145000FFF78EFDA0EB0A0064284ED8DBF80000F1
:10146000C005F5D5E06801280AD008B1052813D0D9
:10147000286A20F001002862286A20F0040002E0B7
:10148000286A40F001002862E06841F2883B98B188
:10149000FFF76EFD82460BE0286A40F004002862E8
:1014A000EEE700BFFFF764FDA0EB0A0159455AD8EB
:1014B000286A8007F6D50CE0FFF75AFD824605E062
:1014C000FFF756FDA0EB0A0159454CD8286A800762
:1014D000F6D41FB1E86920F08050E861E06988B374
:1014E0006968C1F38101022944D00228C6F86080EE
:1014F00004D0FFF73DFD044638E034E0FFF738FD47
:10150000074604E0FFF734FDC01B02282BD82868EB
:101510008001F7D4206AB0F5803F05D16868A168E2
:1015200020F4003008436860D4E908010843696882
:1015300021F4741108436860C6F86090FFF718FD45
:10154000044606E025E000BFFFF712FD001B02285D
:1015500009D828688001F7D51BE000BFFFF708FD18
:10156000001B022802D90320BDE8F88F28688001FB
:10157000F4D40EE00128F7D06868226A00F48031C4
:10158000914204D1616A00F47010884201D00120B8
:10159000EAE70020E8E700000010024000004242B5
:1015A00080044242540000200070004070B50400E6
:1015B00009D0606A002540B125616561A56294F893
:1015C000510040B10CE0012070BD6068B0F5827F31
:1015D000F4D0E561F2E784F85050204600F040F87E
:1015E000022084F851002068016821F04001016068
:1015F000A088218900F4827001F404410843A18984
:1016000001F400610843217C01F002010843217DBF
:1016100001F001010843218B01F400710843217F8F
:1016200001F03801084394F8201001F080010843CC
:10163000218D01F40051084321680860A06904214C
:1016400001EA1040216848602068C16921F4006106
:10165000C1616565012084F85100002070BD000063
:1016600030B585B00024009401940294039400687E
:101670001449884223D11448816941F48051816121
:10168000816901F480510491816941F00401816113
:1016900080690E4D00F004000490A020009002200C
:1016A00001900320039069462846FFF76BFB40201A
:1016B000CDE90004694628460294FFF763FB05B0B4
:1016C00030BD000000300140001002400008014021
:1016D0002DE9F84F044640680025984616460F4607
:1016E0004FF0040BB0F5827F01D1A06888B194F867
:1016F0005000012818D0012084F85000FFF738FC72
:10170000814694F851004FF0000A01280ED00225BE
:1017100082E084F851B013460A462046CDF8008096
:1017200000F036F9BDE8F88F0220FBE7002F72D0F9
:10173000002E70D084F851B0C4F854A0A763A687D7
:10174000E687C4F830A0A4F834A0A4F836A0C4F802
:1017500040A0C4F844A0A068B0F5004F09D12068AB
:10176000016821F0400101602068016821F4804196
:10177000016020680168490603D4016841F0400116
:101780000160E068D8B139E020688168C90709D0F4
:10179000007BA16B0870A06B401CA063E08F401E13
:1017A000E0870CE0FFF7E4FBA0EB0901414503D320
:1017B000B8F1FF3F03D036E0B8F1000F33D0E08F2F
:1017C0000028E1D11DE020688168C90709D0C06800
:1017D000A16B0880A06B801CA063E08F401EE08797
:1017E0000CE0FFF7C5FBA0EB0901414503D3B8F1BD
:1017F000FF3F03D017E0B8F1000F14D0E08F0028AE
:10180000E1D14A464146204600F0DEFE08B12020E4
:101810006065606D00B10125012084F8510084F8F5
:1018200050A028467EE70325F6E72DE9F84F044649
:1018300090F8500000271D461646894601280DD015
:101840004FF0010B84F850B0FFF792FB804694F8FC
:101850005100BA46012804D0022793E00220BDE8D7
:10186000F88FB9F1000F73D0002E71D0032084F8E7
:101870005100C4F854A0C4F83090A686E686C4F897
:1018800038A0A4F83CA0A4F83EA0C4F844A0C4F832
:1018900040A0A068B0F5004F09D12068016821F090
:1018A000400101602068016841F4804101602068C6
:1018B0000168490603D4016841F040010160E06815
:1018C000B0F5006F606803D030B3012E24D041E042
:1018D00008B1012E1CD1206B21680088C86006E089
:1018E00020688168890709D5216B0988C160206B50
:1018F000801C2063E08E401EE08609E0FFF738FB85
:10190000A0EB0800A84202D3681C01D031E07DB3EF
:10191000E08E0028E4D120E0206B21680078087375
:1019200006E020688168890709D5216B0978017371
:10193000206B401C2063E08E401EE0860AE0FFF72B
:1019400017FBA0EB0800A84203D3681C02D010E0EC
:1019500017E06DB1E08E0028E3D1424629462046CB
:1019600000F060FE08B120206065A06818B106E0B4
:10197000FFE7032706E02068C16880680090606D7B
:1019800000B1012784F851B084F850A0384666E7CA
:101990002DE9F84F044690F8500000270A9E1D4696
:1019A00092468B464FF0010901280ED0012084F8A1
:1019B0005000FFF7DDFA804694F851006168012875
:1019C0000CD0B1F5827F07D102E00220BDE8F88F8C
:1019D000A16809B9042801D00227C2E0BBF1000FB9
:1019E00027D0BAF1000F24D01DB394F85100042879
:1019F00002D0052084F8510000206065C4F838A0AA
:101A0000E587A587C4F830B0E586A58620646064C4
:101A100020680168490603D4016841F04001016073
:101A2000E068B0F5006F606805D0E8B3012D46D0DE
:101A30007FE0012795E008B1012D39D1206B2168A5
:101A40000088C860206B801C2063E08E401EE0860A
:101A50002EE02068816889070FD5E18E69B1B9F160
:101A6000010F0AD1216B0988C160206B801C2063A3
:101A7000E08E401EE0864FF0000920688168C907AB
:101A80000CD0E18F51B1C068A16B0880A06B801CA5
:101A9000A063E08F401EE0874FF00109FFF768FA6E
:101AA000A0EB0800B04200E009E001D3701C50D167
:101AB000E08E0028CDD1E08F0028CAD13FE0206B16
:101AC000216800780873206B401C2063E08E401E64
:101AD000E0862EE02068816889070FD5E18E69B124
:101AE000B9F1010F0AD1216B09780173206B401CF9
:101AF0002063E08E401EE0864FF000092068816878
:101B0000C9070CD0E18F51B1C068A16B0870A06B00
:101B1000401CA063E08F401EE0874FF00109FFF7F3
:101B200027FAA0EB0800B04202D3701C01D010E0ED
:101B30007EB1E08E0028CDD1E08F0028CAD1424688
:101B40003146204600F06EFD28B101272020606557
:101B500007E0032705E0A06818B92068C16880681D
:101B60000090012084F85100002084F8500038468D
:101B70002CE710B5401EB0F1807F01D3012010BDCD
:101B80004FF0E02460610F21601701F033F800206E
:101B9000A06107202061002010BD70477047000041
:101BA00070B590F83C20012A26D0012480F83C40F2
:101BB000022280F83D2003685A689D6822F0700672
:101BC0000A6832435A600D4B02689A4208D0B2F15B
:101BD000804F05D00A4B9A4202D00A4B9A4204D158
:101BE000496825F080031943916080F83D40002149
:101BF00080F83C10084670BD022070BD002C0140EA
:101C0000000400400008004010B5040003D094F820
:101C10003D0010B107E0012010BD002084F83C0019
:101C2000204600F01FF8022084F83D00211D2068A6
:101C300000F0C0FE012084F8460084F83E0084F8DD
:101C40003F0084F8400084F8410084F8420084F8A2
:101C5000430084F8440084F8450084F83D000020E7
:101C600010BD000008B500680B49884212D10B482E
:101C7000816941F4006181618069002200F40060A3
:101C8000009011461920FFF7DFF9BDE80840192040
:101C9000FFF7CCB908BD0000002C01400010024045
:101CA00070B5044690F83C00012817D0012584F84F
:101CB0003C50022084F83D002068826822F07702C0
:101CC00022F47F4282600868502830D00DDC202842
:101CD0004DD005DC98B310283BD148E0022070BD00
:101CE000302844D0402834D139E0602828D07028EA
:101CF00006D0B0F5805F2CD0B0F5005F29D10AE0A6
:101D0000CB68D1E90121206800F08AFE2068816853
:101D100041F0770109E0CB68D1E90121206800F0AA
:101D20007FFE2068816841F48041816011E0CA68CB
:101D30004968206800F086FE5021206807E016E020
:101D4000CA684968206800F08EFE6021206800F0B3
:101D500071FE84F83D50002084F83C0070BDCA68D4
:101D60004968206800F06EFE40212068EFE7226895
:101D700001461046EBE7704770B5044600680169FC
:101D80004FF00005C943890715D4C168C9438907C5
:101D900011D4E91E01610120207720688069800745
:101DA000204602D0FFF7E7FF04E000F098F8204655
:101DB00000F096F8257720680169C943490717D4D0
:101DC000C168C943490713D46FF0040101610220BF
:101DD00020772068806910F4407F204602D0FFF70A
:101DE000CAFF04E000F07BF8204600F079F8257780
:101DF00020680169C943090716D4C168C9430907A6
:101E000012D46FF008010161042020772068C069B6
:101E10008007204602D0FFF7AEFF04E000F05FF835
:101E2000204600F05DF8257720680169C943C9069E
:101E300017D4C168C943C90613D46FF010010161FA
:101E4000082020772068C06910F4407F204602D027
:101E5000FFF791FF04E000F042F8204600F040F860
:101E6000257720680169C943C90708D1C168C943FA
:101E7000C90704D1891E0161204600F032F82068AC
:101E80000169C943090609D4C168C943090605D4D3
:101E90006FF0800101612046FFF77FFE2068016935
:101EA000C943490609D4C168C943490605D46FF03E
:101EB00040010161204600F015F820680169C9431E
:101EC00089060BD4C168C943890607D46FF0200185
:101ED00001612046BDE87040FFF760BE70BD7047ED
:101EE00070477047704770B5040004D094F83D0007
:101EF000002510B106E0012070BD84F83C5020465A
:101F000000F022F8242084F83D002068C16821F404
:101F10000051C160204600F0B9FD2068016921F43C
:101F2000904101612068416921F02A0141612068E6
:101F3000C16841F40051C1602564202084F83D004F
:101F400084F83E00002070BD30B585B000240094B8
:101F500001940294039400681449884224D11448DF
:101F6000816941F480418161816901F4804104917A
:101F7000816941F00401816180690E4D00F0040027
:101F800004904FF400700090022001900320039011
:101F900069462846FEF7F6FE2815CDE90004694695
:101FA00028460294FEF7EEFE05B030BD0038014031
:101FB00000100240000801402DE9F843044690F863
:101FC0003D001F4616460D4620284CD1C5B1BEB176
:101FD00094F83C00012846D0012084F83C004FF0E2
:101FE0000008C4F84080212084F83D00FEF7C0FFBF
:101FF000A6848146E684A068B0F5805F03D004E043
:102000000120BDE8F883206928B12E465FF0000565
:1020100084F83C800EE00026FAE78021204600F09C
:1020200091FDA0B9AEB116F8010B21684860E08CB3
:10203000401EE084E08C4B464FF0000200970028E1
:10204000EBD14FF04001204600F07CFD30B1032081
:10205000D7E735F8020BC0F30800E6E7202084F844
:102060003D000020CDE70220CBE7FEE77CB55C49D0
:1020700002250124086001F10C02CDE900542B4631
:10208000584902F1480000F053FA554A5549743254
:1020900002231831A2F1200000F0EEF9504A022389
:1020A000443202F1200101F11000009500F0CCF95A
:1020B0004B4A0123121D02F14001A1F128000095B5
:1020C00000F0FDF9464A0123121D111D081F00945E
:1020D00000F0BAF942480121001DFEF721FD4049F8
:1020E000022324310122A1F1080000F053FA3C4AF6
:1020F000CDE900542C32A2F10801022301F12000A5
:1021000000F016FA364A00941432A2F110010223AC
:1021100001F12800019400F00BFA314ACDE9005496
:10212000121D02F10801012301F1100000F000FA74
:102130002B4A0123121D1146081F009400F0E0F9FC
:10214000274A00942432A2F12001022301F1100059
:10215000019400F0EDF92249224A24310223083A81
:10216000A1F11800009400F06FF91D4A02237432A7
:10217000A2F15801A1F10800CDE9004500F0D8F91D
:10218000174A022374321146A1F14000009500F075
:10219000B7F91349134A443100950223083201F17B
:1021A0003000019500F0C4F90E4A0020B2F1080297
:1021B00002EB800352F82010401CC0B29960022844
:1021C000F6D308490020083101EB800451F8203093
:1021D000401CC0B223610428F6D310687CBD000007
:1021E00058000020EC0A002010B50D4A0D490020CF
:1021F00001EB800452F82030401CC0B2A3600228DA
:10220000F6D3074A074900205032103152F82030E7
:1022100001EB8004401CC0B223610428F6D310BD3A
:102220007C000020E40A00202DE9F04786B000245D
:1022300035480094019402940394816941F010019F
:102240008161816901F010010491816941F02001EF
:102250008161816901F020010491816941F00401EB
:102260008161816901F004010491816941F00801F3
:1022700081618069012200F00800DFF89080D503B9
:10228000049029464046FEF76DFEDFF88490002258
:1022900010214846FEF766FEDFF878A04FF210479F
:1022A000002239465046FEF75DFE009502260125C4
:1022B0000396CDE9015469464046FEF763FD1020C0
:1022C000CDE90005CDE9024669464846FEF75AFDCC
:1022D00011480095CDE9010469465046FEF752FDCC
:1022E00000970396CDE9015469465046FEF74AFD32
:1022F000002211460620FEF7A7FE0620FEF796FEF6
:1023000006B0BDE8F0870000001002400010014058
:1023100000080140000C014000001110104810B5E9
:102320000E4901604FF48271416000218160C160FB
:102330004FF400720161C0E905123822C0E907219B
:10234000416281620A21C162FFF730F9002803D09F
:10235000BDE81040FEF7E1BB10BD000000300140B9
:10236000E00000200F4810B50D4901604FF4827164
:10237000416000218160C1604FF400720161C0E9D9
:1023800005121022C0E90721416281620A21C1625F
:10239000FFF70CF9BDE810404FF4FA70FEF7D2BC1D
:1023A00000300140E000002010B586B0002417483E
:1023B00000940194029403940494134905940160D9
:1023C000C821C0E9011442F20F71C0E9031444614D
:1023D0008461FFF719FC08B1FEF79FFB4FF48050B2
:1023E000009069460948FFF75BFC08B1FEF795FBD2
:1023F000049404A905480594FFF7D2FB002801D0F6
:10240000FEF78BFB06B010BD002C01403801002008
:102410000C4810B50A4901604FF4E13141600021D8
:1024200081600C22C160C0E904128161C161FFF7C3
:102430005AFD002803D0BDE81040FEF76EBB10BD6A
:1024400000380140800100202DE9F04180460698C7
:1024500016460F46002403FB00F509E057F8241048
:1024600058F82400FDF780FE46F82400641CE4B20E
:10247000A542F3D8BDE8F08170B58AB015460022B8
:102480000292039204920592069207920892099290
:102490001C4606460093019302AA00F049F8234621
:1024A0001A4606A9304600F075F8009423462A46DD
:1024B00006A902A8019400F03BF80AB070BDF0B57F
:1024C00087B0074600200C9C0094164602900390AB
:1024D000049005901D4602AA0194384600F028F8A1
:1024E00023462A4604A9384600F054F8CDE90045B1
:1024F0002B46324604A902A800F01AF807B0F0BD36
:102500002DE9F0418046069816460F46002403FB4D
:1025100000F509E057F8241058F82400FDF776FE7E
:1025200046F82400641CE4B2A542F3D8BDE8F0816B
:102530002DE9FF5F9B46DDE90E879146002625E0E9
:1025400000251FE006FB075A002249F82A201446FE
:1025500014E000BF04FB0751019806FB084250F845
:102560002110009850F82200FDF756FE59F82A1065
:10257000FDF7FAFD641C49F82A00E4B24445E9D3AA
:102580006D1CEDB2BD42DDD3761CF6B25E45D7D3ED
:10259000BDE8FF9FF0B5002510E000240AE000BF71
:1025A00004FB035605FB024750F82660641C41F803
:1025B0002760E4B29442F3D36D1CEDB29D42ECD39C
:1025C000F0BDFEE7FEE77047F8B5044640684FF4FB
:1025D0008273984217D1A0684FF48065B0F5004F20
:1025E00001D0A8420FD12068066826F04006066098
:1025F0006068984207D1A068A84204D100920B46B7
:102600000022012103E000920B4600228021204697
:1026100000F018F8002804D0606D40F020006065DC
:102620000320F8BD38B50B460092044600228021F5
:1026300000F008F8002804D0606D40F020006065CC
:10264000032038BD2DE9F8431E46914688460446CE
:10265000089DFEF78DFC401B351AFEF789FC0746E6
:1026600025480068C0F3CB30684338E0701C37D091
:10267000FEF77EFCC01BA84203D215B1009860B3E0
:102680002CE02068416821F0E00141606068B0F50D
:10269000827F0BD1A068B0F5004F02D0B0F5806FFB
:1026A00004D12068016821F040010160A06AB0F502
:1026B000005F09D12068016821F4005101602068A1
:1026C000016841F400510160012084F851000020AC
:1026D00084F850000320BDE8F8830025401E0090D8
:1026E0002068816838EA010004D000214945BDD145
:1026F0000020F0E70121F9E75400002070470000B6
:102700002DE9F04F0020824D8DB001462954401C28
:102710007F28FBD3002001F0E7F900210F2001F012
:1027200033FB400450D50021102001F02DFBC0F3F5
:10273000090178487F29018046D80022744801F0B9
:1027400056FB754C754829462560EA7942712B7A0B
:102750008371AB788370687A462836D04D287CD058
:10276000502831D16D4D41206E4B68726C4800EBA2
:10277000C2010022D1E90001FDF765FEFDF785FFEA
:10278000642190FBF1F2AA7290FBF1F201FB1200BE
:10279000E872002229460E2001F0B9FC00210E202B
:1027A00001F0C6FC002001F015FC00210F2001F013
:1027B000EBFA0006F9D5802200210F2001F079FC08
:1027C00001F0F6FCC4E9040191E001F004FDC4E964
:1027D000060101F0EDFCC4E9080120680BA90B30EB
:1027E00001F0CCFC20680CA90F3001F0C7FC206878
:1027F00001A9133001F0C2FCDDE90B07381AD4F847
:102800001080266AA569FDF71FFF8346701B07919C
:10281000FDF71AFF814601988A46C01BFDF714FF99
:1028200006460F46A5EB0800FDF70EFF0D4600908B
:102830004A46534658460799FDF75EFD32463B46E9
:10284000FDF75AFD2B46009AFDF756FD804609918B
:102850002B4630463946009A00E041E0FDF7F3FD93
:1028600005460E464A46534658460799FDF7EBFD86
:102870002A463346FDF7E1FD4246099BFDF755FE2A
:10288000FDF722FFFDF7EDFE274A284BFDF7DBFDA4
:102890004FF09852264BC4E90A01FDF7D4FDC4E974
:1028A0000201FDF761FF014622484278007801F0FD
:1028B0007DF9D4E90223FDF7C3FD184C184D627968
:1028C00005EBC202C2E90001FDF74EFFFFF7CEFBA8
:1028D000FDF71FFF627905EBC202C2E9000106E0C5
:1028E0008A7A4FF6FF7314480B31FFF765FB134AE2
:1028F00000210F2001F0DDFB082001F0F5F8002099
:1029000001F036FB002001F087FA0DB0BDE8F08F32
:10291000220200201000002018000020C401002026
:10292000A802002000005940FA48CE3B1835B13DBE
:1029300019DDB141040000208001002000D02724CF
:10294000FEF71CBB10B590B028216846FDF701FCCE
:1029500014210AA8FDF7FDFB01210804CDE90010B0
:102960004200029202240491CDE907404FF4E010A6
:1029700009906846FEF78AFC08B172B6FEE70F20A0
:10298000CDE90A0400204FF48061CDE90C010E90DE
:1029900002210AA8FEF78AFB002801D072B6FEE7E2
:1029A00010B010BD704700000148FFF7E5B9000006
:1029B00038010020F0B50268164B174C174D4FF048
:1029C0008047984205D0B84203D0A04201D0A84227
:1029D00003D122F070064A683243984205D0B842CB
:1029E00003D0A04201D0A84203D122F44074CA68A7
:1029F00022434C6922F08002224302608A68C2624C
:102A00000A688262984201D109690163012141612A
:102A1000F0BD0000002C0140000400400008004010
:102A200010B5846842EA032224F47F440A43224317
:102A3000826010BD826822F070020A4342F00701F2
:102A40008160704710B5036A046A24F001040462CF
:102A5000846924F0F00444EA021423F00A020A43D1
:102A60008461026210BD10B5036A23F01003036293
:102A70008369046A23F4704343EA023224F0A0031A
:102A800043EA01118261016210BD000070B5044685
:102A900000680169E26821F4405111430161216934
:102AA000A0680843616908432168CA6841F20C6361
:102AB0009A430243CA6020684169A26921F44071C7
:102AC000114341611E492068884202D1FEF794FB00
:102AD00001E0FEF781FB00EBC00101EB0012606832
:102AE00064218000B2FBF0F3B3FBF1F36FF0180642
:102AF0007343B2FBF0F5B2FBF0F605EB830532232E
:102B000003EB0515B5FBF1F5B6FBF1F605F0F005A5
:102B100005EB0615B2FBF0F6B2FBF0F0B0FBF1F0FE
:102B20006FF01802504306EB800003EB0010B0FB7F
:102B3000F1F0216800F00F002844886070BD0000AB
:102B4000003801402DE9F041984617460E460446EC
:102B5000069D1DE0681C1BD02DB1FEF709FAA0EB05
:102B60000800A84214D92068C16821F4D071C1605E
:102B70002068416921F001014161202084F83D0075
:102B800084F83E00002084F83C000320BDE8F0817A
:102B90002068006836EA000004D00020B842D9D08E
:102BA0000020F3E70120F9E7FEE700000FB4054B32
:102BB00010B503A9044A029800F0B4F910BC5DF8FE
:102BC00014FB000099410008DC0000200FB4084B02
:102BD00010B504A902AA039800F0A4F9044602A9BA
:102BE000002000F036FD204610BC5DF814FB00000C
:102BF000533600080907090E002804DB00F1E02025
:102C000080F80014704700F00F0000F1E02080F819
:102C1000141D704702E008C8121F08C1002AFAD12B
:102C200070477047002001E001C1121F002AFBD14C
:102C3000704738B504466D208DF800006B460122C0
:102C400040F606012E2001F043FA41F6060114B1C8
:102C500040F2076201E041F207622E2001F01CFA07
:102C600038BD38B504466B4602220021362001F0FB
:102C7000A1F80E2C2CD2DFE804F00F07152B2B2B1C
:102C80002B1D392B2B44494E00208DF800009DF858
:102C9000010000F0FE0019E09DF8000000F0FC00CB
:102CA000401C04E09DF8000000F0FC00801C8DF842
:102CB00000000DE09DF8000000F0B30040F0480077
:102CC0008DF800009DF8010040F080008DF80100B3
:102CD0006B4601220021362001F0FAF9012211464B
:102CE00036200DF1010301F0F3F938BD9DF8000025
:102CF00000F0B3008DF800009DF8010000F07F00A7
:102D0000E4E79DF8010040F00200DFE79DF80100D4
:102D100000F0FD00DAE79DF8000000F0CF0040F081
:102D20002000C4E708B503208DF8010001208DF8CC
:102D300000006B4602220021362001F0C9F94FF451
:102D4000004206212D2001F0A7F9012000F086FCA9
:102D50000120FFF786FF08BD08B5010A8DF80110B4
:102D60008DF800006B46022204212D2001F0B0F9FD
:102D700003208DF800006B46012206212D2001F072
:102D8000A7F900208DF800006B46012206212D20B6
:102D900001F09EF90A212D2000F0F6FF08BD000089
:102DA0002DE9FF5F82B00021DDE90430020DDDF87E
:102DB00040B0034318D044F61050A2F2FF32424311
:102DC0001514119801281FD0A5EB0B00401C5FEAD9
:102DD000000A4FF000064E4FDFF83891B0465046DB
:102DE00015D5CAF1000413E0119801244AA3012863
:102DF00001D16FEA0B010298119AC0E90031C0E9D4
:102E0000024206B0BDE8F09FCBF10000DFE70446C8
:102E10000021404A491842EB0450CDE9001012E06D
:102E2000E00707D032463B4640464946FDF70BFBDC
:102E30008046894632463B4610461946FDF703FB5D
:102E400006460F466410002CEAD1DDE90401DDE9F5
:102E50000023BAF1000F06DAFDF7F5FA42464B46B9
:102E6000FDF7F1FA05E0FDF760FB42464B46FDF742
:102E70005CFB04460E460022284BFDF7AFFD03D84D
:102E80004FF0FF30014607E00022254B2046314637
:102E9000FDF732FAFDF78AFD102409E0002C0ADB69
:102EA0000A220023FDF79CFC039B30321A55641E56
:102EB00050EA0102F2D1641C039AC4F111031444D4
:102EC000119A012A03D0012208430DD10AE00843D8
:102ED00004D000204FF0110B119072E7A3EB0B050B
:102EE0006D1E0DE05B4504DD4FF0000205F10105AC
:102EF00004E003DA4FF00002A5F10105002AECD04E
:102F000002981199C0E90231C0E9004579E7000053
:102F1000000014400000F03F300000000000F043CB
:102F20000000E03F2DE9FF4F95B09B4689460646DD
:102F300000250FE2252877D100242746F84A0121F1
:102F4000059400E0044316F8013F203B01FA03F02A
:102F50001042F7D130782A2811D06FF02F03307843
:102F6000A0F13002092A16D8059A44F0020402EBB7
:102F7000820203EB42021044761C0590EFE759F8F9
:102F8000042B0592002A03DA504244F400540590C1
:102F900044F00204761C30782E2816D116F8010F62
:102FA00044F004042A280DD06FF02F023078A0F1ED
:102FB0003003092B09D807EB870302EB4303C7183B
:102FC000761CF3E759F8047B761C30786C280FD018
:102FD00006DC4C2817D068280DD06A2814D104E0EC
:102FE000742810D07A280FD10DE044F400140AE0C0
:102FF00044F4801401E044F440147278824202D117
:1030000004F58014761C761C307866280BD013DC0F
:10301000582877D009DC002875D04528F6D04628F6
:10302000F4D047281AD19DE118E0632835D06428F0
:1030300079D0652812D195E1702873D008DC672813
:10304000F1D069286FD06E280DD06F2806D1B5E079
:1030500073282CD0752875D0782874D05A461799C3
:1030600090476D1C75E1C4F30250022809D0032873
:103070000DD0D9F8001004280DD00D6009F1040915
:1030800067E1D9F80010EA17C1E90052F6E7D9F86C
:1030900000100D80F2E70D70F0E719F8041B8DF8B1
:1030A000001000208DF80100EA46012003E059F8E5
:1030B00004AB4FF0FF3061074FF0000102D40DE088
:1030C00008F101018846B9420FDA8045F8DB1AF8A9
:1030D00008100029F4D108E008F101018846814276
:1030E000FADB1AF808100029F6D105985B46A0EB28
:1030F000080721463846179A00F094FA284400EB56
:10310000080507E04DE029E10DE01AF8010B5A46E9
:1031100017999047B8F10108F7D25B462146384627
:10312000179A13E142E00A220092C4F302524FF0D0
:10313000000A022A08D059F804CB032A4FEAEC719E
:103140000AD00DE029E02AE009F1070121F0070289
:10315000F2E802C1914609E00FFA8CFC4FEAEC71EB
:10316000042A03D14FFA8CFC4FEAEC71002907DAEC
:103170000A460021DCF1000C61EB02012D2202E085
:10318000220504D52B228DF80420012203E0E2075A
:1031900001D02022F7E7904659E00A2102E01022F0
:1031A0000DE010214FF0000A00910BE010224FF0CB
:1031B000000A44F004040827009203E008224FF0BC
:1031C000000A0092C4F30252022A05D059F804CB37
:1031D0000021032A08D009E009F1070121F00702C4
:1031E000F2E802C1914605E01FFA8CFC042A01D1E5
:1031F0000CF0FF0C4FF00008220728D5702806D0ED
:10320000009B83F0100353EA0A0305D00EE040222E
:103210008DF80420012208E05CEA010206D0302289
:103220008DF804208DF8050002229046009B83F063
:10323000080353EA0A030AD15CEA010201D16207DA
:1032400005D530228DF804204FF001087F1E582844
:1032500004D034A003900EA802900DE036A0F9E748
:1032600053466046009AFDF7BBFA84460398825C99
:103270000298401E029002705CEA0100F0D10298B0
:1032800006A9081A00F1200A600702D524F4803448
:1032900000E00127574502DDA7EB0A0000E000200F
:1032A00000EB0A01009005984144401A0590E003A4
:1032B00006D45B462146179A059800F0B3F90544F9
:1032C000002706E001A85A46C05D179990476D1C7B
:1032D0007F1C4745F6DBE0030CD55B462146179A79
:1032E000059800F09FF9054404E030205A461799EC
:1032F00090476D1C0099481E00900029F5DC08E0FD
:10330000029802995A460078491C029117999047F1
:103310006D1CBAF10001AAF1010AF1DC65E10000BF
:10332000092801003031323334353637383961629B
:10333000636465660000000030313233343536375F
:1033400038394142434445460000000000F058F936
:103350000544761C307800287FF4ECAD19B028467F
:10336000BDE8F08F620700D4062709F1070222F0BA
:10337000070CFCE80223E14603F000485FEA080C72
:1033800002D00FF2702C0DE05FEA045C02D50FF260
:10339000682C07E05FEAC47C02D00FF2602C01E0E9
:1033A000AFF2700C4FF0FF3823F00043CDF850C05F
:1033B00065280CD006DC452809D046281DD04728B2
:1033C0003DD13DE0662818D067287ED138E0002145
:1033D000112F01DB112000E0781CCDE9000106A9C6
:1033E0000EA8FFF7DDFCDDE90F010E9A0391002125
:1033F000009207F1010A04914DE04FF00040009760
:10340000CDE9011006A90EA8FFF7CAFCDDE90F02FD
:1034100003920E9B11990022DDF80CA000930492F8
:1034200011B9791C00EB010AB7EB0A0004D4C0F112
:10343000FF3007F1010A0490AAEB0700019044E075
:10344000012F00DA01270021112F01DD112000E0FA
:103450003846CDE9000106A90EA8FFF7A1FCDDE979
:103460000F010E9A0391002104910092BA462107A0
:103470000CD40399514500DA8A46BAF1010F05DDF3
:10348000009AAAF10101515C302908D0B84202DA51
:1034900010F1040F06DA0121CDE9011015E0AAF1BF
:1034A0000101E9E7002805DC049901440491AAEB35
:1034B000000102E0411C514500DD8A460499401A92
:1034C000401C01904FF000400290200704D4019866
:1034D000504501DBCDF8048000208DF84F000298A4
:1034E0000DF14F07B0F1004F25D02B200E90029820
:1034F0004FF0020800280CDA404202902D200E9076
:1035000007E00A210298FDF755F93031029007F8DB
:10351000011DB8F10001A8F10108F2DC02980028B1
:10352000EFD1791E0E980870307800F0200040F03E
:10353000450007F8020D12A8C01B00F107081498F7
:10354000007800B1012000EB0A01019801EBE07165
:1035500005984144401A401E0590E00306D45B469E
:103560002146179A059800F05DF8054414980078F4
:1035700018B15A46179990476D1CE00324D55B4655
:103580002146179A059800F04DF805441CE0049870
:10359000002807DBDDE90301884203DD0098405C79
:1035A000179901E0179930205A469047049805F181
:1035B0000105401C04900198401E019004D12E206A
:1035C0005A46179990476D1CBAF10001AAF1010AF9
:1035D000DDDC05E017F8010B5A46179990476D1C82
:1035E000B8F10001A8F10108F4DC5B462146179A06
:1035F0000598ABE62D0000002B0000002000000025
:103600002DE9F041044600251E461746880404D4DF
:1036100005E039462020B0476D1C641EF9D52846C8
:10362000BDE8F0812DE9F041044600251E46904694
:10363000C80301D5302700E02027880404D505E021
:1036400041463846B0476D1C641EF9D52846BDE892
:10365000F0810A68531C0B6010707047FDF772BB55
:103660007047002070471CB5C2208DF800004FF055
:103670001F300190684600F00DF91CBD2DE9F84F90
:1036800004460578407978494FF00009C84631F87A
:10369000107061787548491ECEB20163042D75D053
:1036A000072D73D000218A46217801736F49E27992
:1036B0008969002A6CD021F480018161217A4173EB
:1036C000217A4FF44033826903EA01410A43834679
:1036D00082610021042000F0ECFC3A4642F604012D
:1036E0002E2000F0D9FC3046FFF7A3FA604F614965
:1036F0000522785D00EB8000431807212B2000F0A5
:10370000E7FC5D49012201EB0A030B21282000F0B0
:10371000DFFC785D594951F820200C21282000F069
:10372000C8FCE079564901EB8000A17930F81120FE
:103730000221272000F0B0FC5248042130F8162066
:10374000272000F0A9FCE07938B3A07804282AD01B
:1037500028208DF8000020220621272000F09CFC64
:103760006B4601222621272000F0B2FC4648E17872
:1037700000EB061050F821200821272000F099FCCA
:10378000B4F80900A0B117E000E001E001218AE7E8
:1037900041F48001FF08816190E76422062127201F
:1037A00000F07AFCE2E710208DF800000246D3E733
:1037B00041F24100A4F80900B4F809202021272093
:1037C00000F06AFC314F0C2123203A6800F071FCB4
:1037D00007EB460004218288232000F05DFCA079DD
:1037E00058B1E0792A49012243180021212000F034
:1037F0006FFC4FF003094FF0010805F00F00290797
:1038000040EA116061784FF4402202EA81410843A6
:10381000920002EA095108434FF4003202EA48419B
:10382000084321794FF0F86202EA81510843617937
:1038300040EAC16200211F2000F03BFCA0786178C3
:103840004FF4004308430204CBF81020E17908202C
:1038500043EA41310A430021CBF8102000F029FC53
:103860000020BDE8F88F0000D4430008A80A00201B
:103870005843000878430008964300086043000856
:10388000A4430008B0430008B4430008984300086C
:10389000A043000810B50446034601220B212A204C
:1038A00000F016FC62680021BDE810401E2000F008
:1038B00000BC000010B5A0B0642104A8FCF749FCCE
:1038C0000024A0B21DAB0522002100F073FA9DF880
:1038D00077009DF874309DF875209DF876108DE87E
:1038E0000F009DF87830224668A104A8FFF76EF912
:1038F00004A8FFF75BF9641C3F2CE2DB002421469F
:10390000202000F041FA00902346202267A104A85D
:10391000FFF75CF904A8FFF749F9241D202CEEDD20
:1039200000242146212000F02FFA00902346212276
:103930005EA104A8FFF74AF904A8FFF737F9241D90
:103940002C2CEEDD00242146232000F01DFA0090EF
:103950002346232255A104A8FFF738F904A8FFF74E
:1039600025F9241D202CEEDD00242146242000F022
:103970000BFA0090234624224CA104A8FFF726F955
:1039800004A8FFF713F9241D0C2CEEDD00242146BA
:10399000272000F0F9F900902346272243A104A82C
:1039A000FFF714F904A8FFF701F9241D2C2CEEDD14
:1039B00000242146282000F0E7F900902346282221
:1039C0003AA104A8FFF702F904A8FFF7EFF8241DB5
:1039D000402CEEDD002421462A2000F0D5F900908D
:1039E00023462A2231A104A8FFF7F0F804A8FFF724
:1039F000DDF8241D142CEEDB002421462B2000F0E2
:103A0000C3F9009023462B2228A104A8FFF7DEF873
:103A100004A8FFF7CBF8241D182CEEDB0024214668
:103A20002F2000F0B1F9009023462F221FA104A8F7
:103A3000FFF7CCF804A8FFF7B9F8241D282CEEDB1B
:103A400000242146312000F09FF9009023463122C6
:103A500016A104A8FFF7BAF804A8FFF7A7F8241DD9
:103A6000542CEEDB00242146362000F08DF9009026
:103A7000234636220DA104A8FFF7A8F804A8FFF7F3
:103A800095F8241D302CEEDD20B010BD7265675B0B
:103A9000253032585D3D253032582530325825309A
:103AA000325825303258253032580A007265675B2B
:103AB000253032583A253032585D3D253038580A85
:103AC0000000000010B50021262000F05DF940F450
:103AD000A8220021262000F0ECFA00222621BDE8D1
:103AE0001040362000F0D8BA10B50446002104205A
:103AF00000F04AF90A4908403CB120F4FF7004F490
:103B0000FF71014341F0010201E020F0010205488C
:103B100000218261BDE81040042000F0CABA000014
:103B2000FFFF47F0A80A002010B504460421362004
:103B300000F02AF914B140F4006201E020F40062C0
:103B40000421BDE81040362000F0B3BA38B540205B
:103B50008DF8000000210E2000F016F90446FFF752
:103B600080FD0546002211460E2000F0A2FA6B46A9
:103B7000012200210D2000F0ABFA0A4A00210F209B
:103B800000F097FA00F06EFA224600210E2000F0B5
:103B900090FA2846FFF764FD0349002081F82C00C5
:103BA00038BD0000F8FF2724A80A002070B505469C
:103BB000164600240846FCF7ACFD0222FCF724FD63
:103BC000FCF763FDFF2800DDFF202A49012EA1F14B
:103BD00008020CD0042D2DD0072D2BD0515D01EB08
:103BE000810202EBC101244A02EB410133E0042DC2
:103BF0000AD0072D08D0515D01EB810202EB411183
:103C00001C4A083211440FE0495D1B4A01EB0111C7
:103C1000883A02EB810100E0641C0A5D8242FBDB12
:103C2000A4F11C001CE0641C0A5D8242FBDBA4F1D1
:103C3000170015E0495D01EB8102C2EB81110E4ACC
:103C40006832114400E0641C0A5D8242FBDBA4F18F
:103C50001E0005E0641C0A5D8242FBDBA4F111003A
:103C6000FCF7E9FCFCF755FDBDE87040034A044B46
:103C7000FCF7E9BB0E440008324500087B14AE4750
:103C8000E17A843F2DE9FC410746344C04208DF84D
:103C9000000000256575256384F8255084F82C50B4
:103CA000A5836563A56300F081F82D4920608842F3
:103CB00002D00120BDE8FC810020FEF7D2FF6B4658
:103CC00001220021242000F003FA1E20FFF744F80F
:103CD00086B2300AA0730420FFF73EF810F0FF0F01
:103CE0000CD002208DF8040001AB012212212D20FE
:103CF00000F0EEF9A08B40F48050A0830620FFF77F
:103D00002BF860600720FFF727F8A06016F01F006F
:103D1000207501D1102020752846257500F016FA6F
:103D2000F80706D0FEF7FEFFA08B40F40060A083EA
:103D300009E00521362000F015F820F40072052175
:103D4000362000F0A9F90120FEF78BFF00210420A6
:103D500000F01AF8A0610020ACE70000A80A0020DB
:103D60003001CADE38B5012489B280B26B46022226
:103D700000F020F830B99DF800009DF8011000EB2C
:103D8000012084B2204638BD38B5012489B280B202
:103D90006B46042200F00EF830B903216846425CFD
:103DA000491E02EB0424FAD5204638BD00210846FE
:103DB000FFF7EABF08B551B140F040008DF80000B0
:103DC000C8B27F2907D88DF8010002200BE08DF8DA
:103DD0000000012007E040F080008DF80100C809D4
:103DE0008DF802000320694600F026FA08BD30B4C1
:103DF00014460A462146034630BC1120FFF7DABFBD
:103E00000346052200211520FFF7D4BF03460522F3
:103E100000211720FFF7CEBF38B5054600208DF8EA
:103E2000000000F01FF94FF4807422460DB14FF4EA
:103E3000407200210D2000F02FF995B16B46012250
:103E400003210F20FFF7B6FF9DF80000000708D5FB
:103E5000FFF77CFE224600210D2000F01DF9012015
:103E600038BD002038BD02460021032000F014B9FF
:103E700070B50E460446FFF7F4FB054600210E2000
:103E8000FFF782FF0EB1204300E0A043024600216D
:103E90000E2000F00EF92846BDE87040FFF7E0BBA9
:103EA00038B50446C0076B464FF002024FF00001E0
:103EB0004FF026002DD0FFF77DFF9DF80100012275
:103EC00020F03C0040F014008DF80100114626203F
:103ED0000DF1010300F0FCF86B46012202213620AF
:103EE000FFF768FF9DF800006B4640F084008DF8F6
:103EF000000001220221362000F0EAF810208DF89F
:103F0000000001208DF80100022228216B46362096
:103F10000BE0FFF74FFF9DF801006B4620F0140007
:103F20008DF8010002220021262000F0D1F8A00720
:103F300011D50F208DF800006B4601222A21362072
:103F400000F0C6F800208DF800006B4601222A21FF
:103F5000362000F0BDF838BD02460221032000F0F3
:103F60009BB8024641F604012E2000F095B80000EF
:103F700038B505466B46012203210420FFF71AFFDE
:103F8000104C75B12A4600210C2000F085F89DF8F0
:103F9000000040F010008DF80000A06940F0805053
:103FA00008E09DF8000020F010008DF80000A069E6
:103FB00020F08050A0616B4601220321042000F014
:103FC00087F838BDA80A002002460021182000F01A
:103FD00063B80000F8B500240546214F26468DF849
:103FE000004080070BD580208DF800006B46012231
:103FF00000210D2000F06CF8012087F82C00E80764
:104000009DF8000020D040F006008DF800006B46BF
:10401000012200210D2000F05BF803210F20FFF7A3
:10402000A1FE10F4816F19D040208DF800006B467E
:10403000012200210D2000F04BF80020FFF774FD55
:1040400087F82C60012409E040F002008DF80000A0
:104050006B46012200210D2000F03AF82046F8BD01
:10406000A80A00201CB56B46012203210F20FFF790
:10407000A1FE9DF8000000F0800100F04000B1EBCF
:10408000400F08D001208DF80400024601AB032147
:104090000D2000F01DF81CBD08B589B28DF8002078
:1040A000120A8DF8012080B26B46022200F010F84F
:1040B00008BD38B500236C46E254120A5B1C042B81
:1040C000FADB89B280B22346042200F001F838BD41
:1040D00008B551B140F0C0008DF80000C8B27F298A
:1040E00009D88DF8010002200DE040F080008DF825
:1040F0000000012007E040F080008DF80100C809B1
:104100008DF802000320694600F0EEF808BD10B5F6
:1041100014460244B2F5806F01D9012010BD0B4650
:10412000821E21460920FFF7D3FF002010BD0000AA
:10413000054A10B5126940EA815002430021082067
:10414000FFF7B7FF002010BDA80A002038B50446CD
:104150006B4601220E212B20FFF72CFE9DF800005C
:1041600004F01F0120F01F0001438DF800106B4682
:1041700001220E212B20FFF7ABFF38BD10B5002226
:104180000A60835CD400A3400C68521C23440B607B
:10419000042AF6DB10BD000013B54FF6FF730122B1
:1041A00069460248FDF708FF00981CBD8001002009
:1041B0007CB5002425466846FFF722FE04206946A8
:1041C0002D0245EA146522020C5C1443401EF7D50B
:1041D000204629467CBD7CB5002425466846FFF76D
:1041E00015FE042069462D0245EA146522020C5C86
:1041F0001443401EF7D5204629467CBDFCF7C6FE79
:10420000FEF7A0FBFEF710F8FEF788F8FEF7CCF8F3
:10421000FEF7FEF80748416821F0E0614160FFF7D2
:1042200049FBFCF75BFCFCF703FC00BF00F04CF81B
:10423000FCE70000000001402DE9F0479A461546D2
:1042400089468046FFF70DFA0F4E044600221021E2
:104250003046FCF787FE4FF47A773B4642464946A4
:104260000A48FDF7E2FAAAB23B4651460748FDF775
:104270002FFA012210213046FCF774FE2046FFF78A
:10428000EFF90020BDE8F08700080140E0000020C1
:1042900010B50C4C012210212046FCF763FE1420BF
:1042A000FCF750FD002210212046FCF75BFE142095
:1042B000FCF748FD20460122BDE810401021FCF724
:1042C00051BE0000000C01400020FFF751FE082005
:1042D000FFF70AFC0020FFF74BFE0020FFF79CFDD4
:1042E000FDF782FFFEE700002DE9F0479A461546EC
:1042F00089468046FFF7B5F90F4E0446002210218B
:104300003046FCF72FFE4FF0FF373B46424649460A
:104310000A48FDF78AFAAAB23B4651460748FDF71C
:1043200084FA012210213046FCF71CFE2046FFF7DC
:1043300097F90020BDE8F08700080140E000002068
:104340000000000000000000010203040607080945
:104350000000000001020304000001020304000544
:10436000405C0000A05C0400C06C0800805C04009D
:10437000E03F1E00E07D1E00070400091E08054006
:104380000826091040085608054008261D040008A4
:10439000BE1D040008BED8BC07A9022570889B88F2
:1043A000401008000A00160001000600010002008B
:1043B00087008D002D001A3152001A339A001A35E9
:1043C0001D011A376B003B31BE003B335E013B35AC
:1043D00096023B37000099599959EB518F421E457F
:1043E000142E0080EB51F5283333E13A703DE13A69
:1043F000C235852BC2353333C235C235AE47E13ABB
:104400005138A330513800000102000300000000C1
:104410000000000000010103040507090B0C0D0F4B
:10442000121417191C1E2124282B2F32363A3F4212
:10443000474C5259626D7F9BDEFFFF010204050667
:1044400008090A0C0D0F121416181B1D202326290B
:104450002C2F33373A3E42474E55606F87C2F0FFEC
:1044600001020304050708090A0C0E10121416189D
:104470001A1C1F2124272A2D3134373B3F454C5528
:104480006278ADD5FF01010203040506060708099D
:104490000B0C0E0F1012141517191B1D1F222426AA
:1044A000292C30353B44537894FF07070809090A43
:1044B0000B0B0C0D0E0F1011121314151617181AE2
:1044C0001B1C1E1F20222426282A2C2E3032343773
:1044D000393B3D3F4244474A4E5155595E63686EF1
:1044E000747B828B96A4B6CFEEFFFFFFFFFF04051F
:1044F000050506060707070809090A0A0B0B0C0D34
:104500000D0E0F101111121314151617191A1B1D69
:104510001E1F202223242627282A2C2E303234370F
:104520003A3D4044484B50555C65707F93A8B6C2F5
:10453000CDFF010202030405070A0D101316181B14
:104540001E2023262B30384E65789DFF0102020382
:10455000040406090C0E111315181A1C1F21252A14
:10456000314459698AFF01010203030405080A0D59
:104570000F11131517191B1E21252C3C4F5D7AFFB7
:10458000010101020203040607090A0C0D0F1011B4
:104590001315171A1E2A374155FF07080809090A7B
:1045A0000B0C0D0D0E0F10101112131314151618FD
:1045B000191B1C1D1E202122232527292B2D3032BB
:1045C00035383C40444A5159626D7A88929AA2B279
:1045D000DCF9FFFFFF0405050506060707080809C3
:1045E000090A0A0A0B0B0C0D0D0E0F1010111213F5
:1045F000131415161718191A1C1D1F212325272AF5
:104600002E32363C434B535A5F646E8799ACC0FFE1
:104610003046000800000020E0000000142C0008D4
:1046200010470008E0000020380E0000242C00088D
:104630000000000002020802090901010021040033
:10464000000000000000000000000000000000006A
:10465000000000000000000000000000000000005A
:10466000000000000000000000000000000000004A
:104670000000000000000000010000001000000029
:10468000000000000024F400000000000000000012
:10469000CDCCCC3E0000803F0000803F00000000F9
:1046A000000000000000803F000000000000803F8C
:1046B0000000803F0000803F0000803F0000803FFE
:1046C00000000000000000000000803F00002041CA
:1046D0000000000000000000000020410000803FBA
:1046E0000AD723BC000000000000803F0AD7233C0B
:1046F0000000000000000000000000000000204159
:104700000000000000000000000020410000000048
:04000005080000ED02
:00000001FF
