:020000040800F2
:10000000B8060020A9010008C9220008AF1E000898
:10001000A1220008C90800087D2B0008000000008C
:100020000000000000000000000000003D24000867
:10003000CB08000800000000CF220008C9260008F5
:10004000C3010008C3010008C3010008C301000880
:10005000C3010008C3010008CD080008C30100085F
:10006000C3010008C3010008C3010008C301000860
:10007000C3010008C3010008C3010008C301000850
:10008000C3010008C3010008C3010008000000000C
:10009000000000000000000000000000C301000894
:1000A000C3010008A9270008C3010008C301000814
:1000B000C3010008C3010008C3010008C301000810
:1000C000C3010008C3010008C3010008C301000800
:1000D000C3010008C3010008C301000800000000BC
:1000E000E1080008C3010008C30100080000000087
:1000F000000000000000000000000000C301000834
:1001000000000000C3010008C3010008C30100088B
:1001100000000000000000000000000000000000DF
:10012000C3010008C3010008C3010008C30100089F
:10013000C3010008000000000000000000000000F3
:10014000000000000000000000000000C3010008E3
:10015000C3010008C3010008C3010008C30100086F
:10016000C3010008C30100080000000000000000F7
:10017000000000000000000000000000000000007F
:1001800000000000C30100080000000000000000A3
:10019000C3010008DFF80CD000F0B8FA00480047AF
:1001A0003D400008B8060020064880470648004742
:1001B000FEE7FEE7FEE7FEE7FEE7FEE7FEE7FEE717
:1001C000FEE7FEE765270008950100082DE9F05FCE
:1001D0000546002092469B468846064681464024B6
:1001E0001BE0284641464746224600F0DFF95346C9
:1001F0005A46C01A914110D311461846224600F0C3
:10020000C6F92D1A67EB01084F462246012000214E
:1002100000F0BDF917EB00094E41201EA4F10104C6
:10022000DFDC484631462A464346BDE8F09FD2B25D
:1002300001E000F8012B491EFBD270470022F6E7CF
:1002400010B513460A4604461946FFF7F0FF20464C
:1002500010BD2DE9FE4F804681EA0300C00F0C4619
:10026000009021F0004123F00045B8EB0200A941C5
:1002700005D24046214690461C460B46024623F0D6
:100280000040104347D0270DC7F30A00C3F30A51BB
:100290000290401A019040286BDAC3F3130040F437
:1002A000801B0098924620B10023D2EB030A63EB37
:1002B0000B0B01985946C0F14002504600F067F917
:1002C00006460D4650465946019A00F07FF910EB5C
:1002D00008006141002487EA115284EAE7731A4357
:1002E00040D0009A62B3019A012A4FEA075215DC06
:1002F000001B61EB02014FF0004202EA0752CDE918
:100300000042001C41F5801132462B4600F07FF977
:1003100003B0BDE8F08F40462146F9E7001B61EBD2
:100320000201001C41F5801300185B412018A2F562
:10033000001747EB030140EAD570B6196D4111E093
:100340006D084FEA360645EAC0754FEA0752001BB2
:1003500061EB0201001C41F5801149084FEA3000B1
:100360000019514132462B4603B0BDE8F04F00F072
:100370003FB90098012240000023D0EB020263EB5A
:10038000E073009821464FEAE074B8EB000061EB9F
:100390000401E9E783F000435BE781F0004158E79F
:1003A0002DE9FE4F81EA030404F0004421F00041EE
:1003B00000944FF0000B23F0004350EA01045ED09C
:1003C00052EA03045BD0C3F30A54C1F30A552C4428
:1003D000A4F2F3340194A0FB0254C1F3130141F4DD
:1003E0008011C3F3130343F4801301FB024400FBA9
:1003F000034E840A970A44EA815447EA8357A4FBD0
:10040000076802958D0A05FB07854FEA932C04FBCC
:100410000C542705029D4FEA065847EA1637B5EBFC
:1004200008056EEB070C870E920E47EA811742EA29
:100430008312A7FB0201B6EB0B0164EB00042B0D4A
:1004400043EA0C335E1844EB1C50DA465146E7FB96
:100450000201C5F313044FEA0B3343EA14534FEA86
:100460000432019C43EA0603A4F10C040294009CAC
:10047000CDE900B400F0CBF803B0BDE8F08F002068
:100480000146F9E72DE9F04D81EA030404F0004B41
:1004900021F0004514464FF0000A23F0004150EAD5
:1004A000050220D054EA01021DD0C5F30A570246C6
:1004B000C5F31303C1F31300C1F30A5640F48015CA
:1004C00043F48013A7EB0608101BD64608F2FD384C
:1004D00073EB050002D308F1010801E092185B41BB
:1004E000B8F1000F03DA00200146BDE8F08D0020CE
:1004F0004FF48011064684460EE0171B73EB050788
:1005000005D3121B63EB050306434CEA010C4908B3
:100510004FEA300092185B4150EA0107EDD152EAF0
:10052000030012D082EA040083EA0501084305D0E3
:10053000101BAB4106D20122002306E000224FF03F
:10054000004302E06FF0010253101AEB06004CEB7F
:10055000085110EB0A0041EB0B01BDE8F04D00F033
:1005600047B830B50B46014600202022012409E09F
:1005700021FA02F59D4205D303FA02F5491B04FA5C
:1005800002F52844151EA2F10102F1DC30BD202A3B
:1005900004DB203A00FA02F1002070479140C2F1DA
:1005A000200320FA03F3194390407047202A04DB0C
:1005B000203A21FA02F00021704721FA02F3D040DC
:1005C000C2F120029140084319467047202A06DBF9
:1005D000CB17203A41FA02F043EAE07306E041FA11
:1005E00002F3D040C2F120029140084319467047FF
:1005F00010B5141E73F1000408DA401C41F100012B
:1006000092185B411A4301D120F0010010BD2DE981
:10061000F04D92469B4611B1B1FA81F202E0B0FA78
:1006200080F220329046FFF7B2FF04460F4640EAC0
:100630000A0041EA0B0153465A46084313D01146BB
:1006400053EA010019D0C8F140025046FFF7AEFF4F
:1006500005460E46504659464246FFF798FF084366
:1006600005D0012004E020463946BDE8F08D002089
:10067000054346EAE0762C4337430A986305E40ACB
:10068000A0EB08000022FD0A44EA47540A3002D5D4
:1006900000200146E9E7010510196941DDE9084537
:1006A00000196941BDE8F04DA2E7C1F30A52C1F358
:1006B000130140F2FF3341F480119A4202DA002024
:1006C0000146704740F233439A42A2F2334202DCC1
:1006D0005242FFF76BBFFFF75ABF000030B5041E50
:1006E00071F1000404DB4FF00044404264EB01016F
:1006F000141E73F1000405DB1C464FF00043524208
:1007000063EB0403994208BF904230BD064C074D8D
:1007100006E0E06840F0010394E8070098471034D1
:10072000AC42F6D3FFF73AFDF84200081843000840
:1007300010B5094B002200BF33F82240844204D197
:1007400003EB82004180012010BD521CD2B2042A6A
:10075000F2D3002010BD00003201002070B51F4C04
:100760001F48002261884171090A817121788170D6
:100770005021417201460C2003F047FB00210C2060
:1007800003F054FB002003F0A3FA00210F2003F034
:1007900071F90006F9D5802200210F2003F007FB34
:1007A00003F095FBC4E9040100200E4905460D54F1
:1007B000401C7F28FBDB082003F078F84DF6A8608A
:1007C00003F054FA002003F0A1F92078401CC0B2D5
:1007D0002070FF2800D1257070BD00001800002097
:1007E00054000020B200002010B503F073FC01F0AB
:1007F000BDFC17A002F0C4F9012003F0B9F80128EC
:1008000002D118A002F0BCF91CA002F0B9F901F065
:10081000D1FC1E4802F01CFF012003F0C0F91B4868
:1008200002F00BFF4FF2F20003F015FA052003F07F
:1008300094F948F2840003F013FA002003F042FA1E
:100840000121134803F093F9BDE8104003F01BB8F1
:1008500068656C6C6F2064776D31303030210D0A23
:100860000000000064776D3130303020696E6974AB
:10087000206661696C210D0A00000000696E6974D0
:100880002070617373210D0A000000000400002035
:1008900000D003240A4861210A4B0170882141706D
:1008A000F221C170F0210171002181701F221A60B4
:1008B0000522C271017201214171817170470000EE
:1008C0005400002000000020FEE7704710B5012012
:1008D00000F072F801490120086010BD143C01408D
:1008E0004FF4004000F068B810B50446012214F837
:1008F0004C0F6B2103F066FC207807226C2103F07B
:1009000061FC207805221D2103F05CFC2078002288
:10091000372103F057FC2078C022692103F052FCF4
:10092000207802221F2103F04DFC2078402238213C
:1009300003F048FC207804221E2103F043FC2078B9
:100940002022BDE810406B2103F03CBC72B6FEE7EC
:1009500000F030B9002200F03AB9012200F037B9B6
:1009600070B5044600F038F90546601C02D0044812
:100970000078044400F030F9401BA042FAD370BD67
:100980004000002010B5094C2068C00701D001F0DC
:100990009BFF2068000407D54FF48071044800F0E5
:1009A0000EF904490120087010BD0000143C0140FC
:1009B000000402401900002070B5054D0446286867
:1009C000204203D02046FFF7DDFF2C6070BD000001
:1009D000143C01402DE9F84FDFF8B8A100220124B2
:1009E0000AF1040B03254FF00F090BF1040E00BFB1
:1009F0000B6804FA02F63340B34273D10F7907F063
:100A00000307012F01D0022F16D187684FEA420851
:100A100005FA08FC27EA0C07D1F80CC00CFA08FC10
:100A20004CEA070CC0F808C04768B7430E79C6F314
:100A3000001696403E4346600E79F643B6070DD049
:100A4000C768560005FA06FC27EA0C07D1F808C06B
:100A50000CFA06FC4CEA070CC0F80CC00E7906F044
:100A60000306022E10D1D60800EB8608D8F82060C5
:100A700057074FEAD76C09FA0CF7BE430F6907FA1C
:100A80000CF73743C8F8207006684FEA420C05FAA5
:100A90000CF7BE430F7907F0030707FA0CF737434B
:100AA00007604E6816F4403F6DD03B4E376847F400
:100AB00080473760366822F0030706F480460096C8
:100AC000364E07EB060CDCF8086897073F0F09FA6B
:100AD00007F826EA0806DFF8C880404503D14FF042
:100AE00000081EE04FE0DFF8BC80404502D14FF027
:100AF000010816E0DFF8B080404502D14FF002084F
:100B00000FE0DFF8A880404502D14FF0030808E06D
:100B1000DFF89C80404502D14FF0040801E04FF01F
:100B2000070808FA07F848EA0608CCF80888DAF84F
:100B300000605746D1F804C09E435FEACC3C00D524
:100B40001E433E60DBF800605F46D1F804C09E4360
:100B50005FEA8C3C00D51E433E60DEF800607746BD
:100B6000D1F804C09E435FEACC2C00D51E433E6002
:100B7000084F0C373E68D1F804C09E435FEA8C2CC6
:100B800000D51E433E60521C102AFFF431AFBDE871
:100B9000F88F0000003C0140443802400030014022
:100BA000000002400004024000080240000C024025
:100BB000001002400069084000D0012070474269DF
:100BC00021EA02030A4043EA0241816170470AB107
:100BD000816170470904FBE70148806870470000A5
:100BE000400000200248816802781144816070470B
:100BF000400000200B4810B5016841F4007101600D
:100C0000016841F480610160016841F48071016014
:100C1000032000F06FF80F2000F006F800F024F831
:100C2000002010BD003C024070B50D4D04464FF44D
:100C30007A712878B1FBF0F00A490968B1FBF0F04D
:100C400000F005FE48B9102C07D200222146501EA4
:100C500000F030F800206C6070BD012070BD000015
:100C6000400000204C0000200A4808B5016841F40B
:100C700080410160006800F4804000900548001F3A
:100C8000016841F080510160006800F080500090E0
:100C900008BD000044380240002809DB00F01F02B4
:100CA000012191404009800000F1E020C0F80011CE
:100CB00070470000F0B40E4B1B680C46C3F30223D0
:100CC000C3F10705042D00D90425191D072901D2F8
:100CD000002300E0DB1E012606FA05F1491E214033
:100CE00099409E40761E16403143F0BC01F06CBF27
:100CF0000CED00E0064900F0070208684FF6FF031C
:100D0000184040EA0220034A104308607047000080
:100D10000CED00E00000FA05704700002DE9F047F7
:100D20000E46050065D0DFF81481D8F80000F7B250
:100D300000F00700B04207D288F80070D8F8000031
:100D400000F00700B04254D128683D4C810712D50D
:100D5000400703D5206840F4E05020602878000761
:100D600003D5206840F4604020602068A96820F026
:100D7000F000084320602878C0072DD0304968680B
:100D80000839012812D0022813D0032811D009688D
:100D9000890700292DDA216821F003010143216030
:100DA000FFF71AFF814641F2883A0EE0096889038D
:100DB000EFE709688901ECE7FFF70EFFA0EB0901F7
:100DC000514502D90320BDE8F0872068696800F02A
:100DD0000C00B0EB810FEFD1D8F80010404601F0C5
:100DE0000701B14207D90770006800F00700B04260
:100DF00001D00120E7E72878400705D52068E96899
:100E000020F4E050084320602878000706D52068C9
:100E1000296920F4604040EAC100206000F03EF8FB
:100E20002168084AC1F30311515CC84006490860B3
:100E300006480068FFF7F8FE0020C4E7003C0240C7
:100E400008380240304200084C00002044000020D6
:100E500001490120C8647047000047420448054921
:100E600000680968044AC1F38221515CC840704798
:100E70004C00002008380240404200080448054960
:100E800000680968044AC1F34231515CC8407047A8
:100E90004C0000200838024040420008154810B5B8
:100EA000006810F00C02144813D01449042A0FD023
:100EB000082A0ED10F4C241F2268236802F03F023B
:100EC0005B0207D52068C0F38810A0FB010106E093
:100ED000084610BD2168C1F38811A1FB0001002361
:100EE000FFF774F92168C1F30141491C4900B0FBC7
:100EF000F1F010BD083802400024F400001BB700D8
:100F0000054810B50068000605D5FFF705FF024942
:100F10008020891C087010BD0C3802402DE9F84F64
:100F200004006ED02078DFF84C93C007A9F10405C7
:100F30004AD009F104000168C1F38101012908D0F8
:100F40000068C0F3810002280AD1D9F800004002ED
:100F500006D52868800337D560680028E1D033E0E3
:100F60006068B0F5803F10D0B0F5A02F286810D091
:100F700020F480302860286820F480202860606891
:100F8000A8B1FFF729FE06460DE0286840F480303E
:100F9000F4E740F480202860F7E700BFFFF71CFE6D
:100FA000801B642873D828688003F7D50CE0FFF70E
:100FB00013FE064605E000BFFFF70EFE801B642807
:100FC000F0D828688003F7D42078DFF8AC82800757
:100FD0004FF0000A3ED5A748001D016811F00C0F24
:100FE00008D00068C0F3810002280BD1D9F80000B6
:100FF000400207D42868800716D5E068012800D190
:1010000012E033E1E068B8B10120C8F80000FFF752
:10101000E3FD064605E000BFFFF7DEFD801B02286A
:10102000C0D828688007F7D52868216920F0F80023
:1010300040EAC10028600DE0C8F800A0FFF7CCFD31
:10104000064604E0FFF7C8FD801B02281FD8286869
:101050008007F7D42078000722D5864F874861693A
:10106000703771B101210160FFF7B6FD064604E05B
:10107000FFF7B2FD801B022809D838688007F7D532
:101080000EE0C0F800A0FFF7A7FD064605E082E0ED
:10109000FFF7A2FD801B02287DD838688007F7D4AF
:1010A0002078400768D5DFF8CCB100270BF13C0B66
:1010B000DBF80000C0000BD4DBF8001041F08051D9
:1010C000CBF80010DBF80000012700F08050009002
:1010D0006B4E3068C00510D4306840F480703060CA
:1010E000FFF77AFD009005E0FFF776FD0099401AC2
:1010F000022850D83068C005F6D55E4EA0686C3620
:1011000001280FD00528306810D020F00100306091
:10111000306820F004003060A068B8B1FFF75CFDD3
:1011200000900FE0306840F00100F4E740F0040068
:101130003060F7E7FFF750FD0099411A41F288301F
:10114000814266D830688007F4D50EE0FFF744FD91
:10115000009007E0FFF740FD0099411A41F2883006
:10116000814256D830688007F4D42FB1DBF80010E4
:1011700021F08051CBF80010A069C8B33D49091D8A
:101180000968C1F3810102294AD00228504607D0DC
:10119000C8F8600000E03CE0FFF71EFD04463BE0BD
:1011A0004746C8F86000FFF717FD064605E000BF98
:1011B000FFF712FD801B02282BD828688001F7D486
:1011C000D4E907010843A16A2E4A490802EB01410C
:1011D000626A41EA8211084394F82C1040EA0161E6
:1011E000C9F8001001203866FFF7F6FC044606E057
:1011F0003EE000BFFFF7F0FC001B022809D828687A
:101200008001F7D534E000BFFFF7E6FC001B0228A1
:1012100002D90320BDE8F88F28688001F4D427E0C4
:101220000128F7D0D9F80000E26900F4800191426A
:101230001CD1226A00F03F01914217D147F6C071DC
:10124000626A0140B1EB821F10D1A26A4FF0FF33F6
:1012500000F4403103EB5202B1EB024F06D194F897
:101260002C1000F07060B0EB016F01D00120D1E7CD
:101270000020CFE70438024000004742800E47427A
:10128000007000400000FFFF70B5040009D0606AE4
:10129000002540B125616561A56294F8510040B117
:1012A0000CE0012070BD6068B0F5827FF4D0E5618C
:1012B000F2E784F85050204600F044F8022084F809
:1012C00051002068016821F040010160A088218957
:1012D00000F4827001F404410843A18901F4006123
:1012E0000843217C01F002010843217D01F0010146
:1012F0000843218B01F400710843217F01F038017C
:10130000084394F8201001F080010843218D01F476
:101310000051084321680860A069042101EA1040D7
:1013200094F8241001F010010843216848602068F7
:10133000C16921F40061C1616565012084F8510033
:10134000002070BD10B586B0044614216846FEF733
:1013500075FF13492068884220D112480021026895
:1013600042F480520260006800F4805005900D48FD
:101370001438026842F001020260006800F00100C7
:101380000590E02000900220CDE9010103200390A8
:101390000520049069460448FFF71CFB06B010BD09
:1013A0000030014044380240000002402DE9F84F6F
:1013B000044640680025984616460F464FF0040B39
:1013C000B0F5827F01D1A06888B194F8500001285F
:1013D00018D0012084F85000FFF7FEFB814694F8F6
:1013E00051004FF0000A01280ED0022582E084F857
:1013F00051B013460A462046CDF8008000F036F979
:10140000BDE8F88F0220FBE7002F72D0002E70D0CD
:1014100084F851B0C4F854A0A763A687E687C4F83F
:1014200030A0A4F834A0A4F836A0C4F840A0C4F8B2
:1014300044A0A068B0F5004F09D12068016821F0F0
:10144000400101602068016821F48041016020684A
:101450000168490603D4016841F040010160E06879
:10146000D8B139E020688168C90709D0007BA16B39
:101470000870A06B401CA063E08F401EE0870CE06A
:10148000FFF7AAFBA0EB0901414503D3B8F1FF3FE9
:1014900003D036E0B8F1000F33D0E08F0028E1D15F
:1014A0001DE020688168C90709D0C068A16B088069
:1014B000A06B801CA063E08F401EE0870CE0FFF76C
:1014C0008BFBA0EB0901414503D3B8F1FF3F03D0EB
:1014D00017E0B8F1000F14D0E08F0028E1D14A46A0
:1014E0004146204600F0F4FE08B120206065606DA2
:1014F00000B10125012084F8510084F850A028464D
:101500007EE70325F6E72DE9F84F044690F85000F2
:1015100000271D461646894601280DD04FF0010BC5
:1015200084F850B0FFF758FB804694F85100BA4653
:10153000012804D0022793E00220BDE8F88FB9F11A
:10154000000F73D0002E71D0032084F85100C4F82E
:1015500054A0C4F83090A686E686C4F838A0A4F853
:101560003CA0A4F83EA0C4F844A0C4F840A0A068E1
:10157000B0F5004F09D12068016821F040010160F9
:101580002068016841F480410160206801684906D3
:1015900003D4016841F040010160E068B0F5006FDC
:1015A000606803D030B3012E24D041E008B1012E91
:1015B0001CD1206B21680088C86006E02068816823
:1015C000890709D5216B0988C160206B801C2063C5
:1015D000E08E401EE08609E0FFF7FEFAA0EB08006F
:1015E000A84202D3681C01D031E07DB3E08E002810
:1015F000E4D120E0206B21680078087306E02068C1
:101600008168890709D5216B09780173206B401C1B
:101610002063E08E401EE0860AE0FFF7DDFAA0EBD3
:101620000800A84203D3681C02D010E017E06DB197
:10163000E08E0028E3D142462946204600F076FE9F
:1016400008B120206065A06818B106E0FFE7032715
:1016500006E02068C16880680090606D00B10127D5
:1016600084F851B084F850A0384666E72DE9F84F69
:10167000044690F8500000270A9E1D4692468B466D
:101680004FF0010901280ED0012084F85000FFF727
:10169000A3FA804694F85100616801280CD0B1F596
:1016A000827F07D102E00220BDE8F88FA16809B966
:1016B000042801D00227C2E0BBF1000F27D0BAF105
:1016C000000F24D01DB394F85100042802D0052047
:1016D00084F8510000206065C4F838A0E587A5872C
:1016E000C4F830B0E586A58620646064206801688F
:1016F000490603D4016841F040010160E068B0F59B
:10170000006F606805D0E8B3012D46D07FE0012767
:1017100095E008B1012D39D1206B21680088C8609F
:10172000206B801C2063E08E401EE0862EE0206847
:10173000816889070FD5E18E69B1B9F1010F0AD12E
:10174000216B0988C160206B801C2063E08E401EE5
:10175000E0864FF0000920688168C9070CD0E18F4E
:1017600051B1C068A16B0880A06B801CA063E08FA2
:10177000401EE0874FF00109FFF72EFAA0EB0800AA
:10178000B04200E009E001D3701C50D1E08E002887
:10179000CDD1E08F0028CAD13FE0206B21680078CE
:1017A0000873206B401C2063E08E401EE0862EE014
:1017B0002068816889070FD5E18E69B1B9F1010F01
:1017C0000AD1216B09780173206B401C2063E08EE5
:1017D000401EE0864FF0000920688168C9070CD0E0
:1017E000E18F51B1C068A16B0870A06B401CA06371
:1017F000E08F401EE0874FF00109FFF7EDF9A0EB05
:101800000800B04202D3701C01D010E07EB1E08E1F
:101810000028CDD1E08F0028CAD14246314620466B
:1018200000F084FD28B101272020606507E0032730
:1018300005E0A06818B92068C168806800900120A0
:1018400084F85100002084F8500038462CE710B589
:10185000401EB0F1807F01D3012010BD4FF0E02485
:1018600060610F21601701F0AFF90020A06107202F
:101870002061002010BD70477047000070B590F8DF
:101880003C20012A2CD0012480F83C40022280F820
:101890003D2003685A689D6822F070060A6832434A
:1018A0005A60104B02689A420ED0B2F1804F0BD0B2
:1018B0000D4B9A4208D00D4B9A4205D00C4B9A42E0
:1018C00002D00C4B9A4204D1496825F08003194399
:1018D000916080F83D40002180F83C10084670BDC2
:1018E000022070BD000001400004004000080040DC
:1018F000000C00400040014010B5040003D094F8F3
:101900003D0010B107E0012010BD002084F83C002C
:10191000204600F01FF8022084F83D00211D2068B9
:1019200000F050FF012084F8460084F83E0084F85F
:101930003F0084F8400084F8410084F8420084F8B5
:10194000430084F8440084F8450084F83D000020FA
:1019500010BD000008B500680B49884212D10B4841
:10196000016841F0010101600068002200F00100FF
:10197000009011461920FFF79DF9BDE80840192095
:10198000FFF78AB908BD000000000140443802405A
:1019900090F83D10012901D001207047022180F804
:1019A0003D1000680E4988420ED0B0F1804F0BD038
:1019B0000C49884208D00C49884205D00B4988421E
:1019C00002D00B49884204D1816801F00701062941
:1019D00003D0016841F00101016000207047000060
:1019E000000001400004004000080040000C0040DE
:1019F0000040014090F83D10012901D001207047BE
:101A0000022180F83D100168CA6842F00102CA60F4
:101A100000680E4988420ED0B0F1804F0BD00C49BF
:101A2000884208D00B49884205D00B49884202D031
:101A30000A49884204D1816801F00701062903D0D0
:101A4000016841F001010160002070470000014081
:101A50000004004000080040000C0040004001402D
:101A600001680A6A41F211131A4207D10A6A9B10EF
:101A70001A4203D10A6822F001020A60012180F8AB
:101A80003D100020704770B5044690F83C000025DA
:101A9000012817D0012684F83C60022084F83D001C
:101AA0002068826822F0770222F47F428260086810
:101AB000502838D00DDC20284FD005DC90B31028FA
:101AC00011D14AE0022070BD302846D040280AD10A
:101AD0003BE060282FD070280DD0B0F5805F03D098
:101AE000B0F5005F12D0012584F83D60002084F835
:101AF0003C00284670BDCB68D1E90121206800F088
:101B0000ADFE2068816841F0770109E0CB68D1E93A
:101B10000121206800F0A2FE2068816841F4804124
:101B20008160E1E719E0CA684968206800F0A8FE12
:101B30005021206806E0CA684968206800F0B1FEBC
:101B40006021206800F094FECEE7CA6849682068EA
:101B500000F096FE40212068F4E722680146104616
:101B6000F0E7704770B50446006801694FF0000562
:101B7000C943890715D4C168C943890711D4E91E2F
:101B8000016101202077206880698007204602D00B
:101B9000FFF7E7FF04E000F098F8204600F096F821
:101BA000257720680169C943490717D4C168C9432B
:101BB000490713D46FF004010161022020772068E7
:101BC000806910F4407F204602D0FFF7CAFF04E08E
:101BD00000F07BF8204600F079F82577206801694D
:101BE000C943090716D4C168C943090712D46FF065
:101BF00008010161042020772068C0698007204621
:101C000002D0FFF7AEFF04E000F05FF8204600F0DE
:101C10005DF8257720680169C943C90617D4C168F2
:101C2000C943C90613D46FF0100101610820207761
:101C30002068C06910F4407F204602D0FFF791FF72
:101C400004E000F042F8204600F040F825772068D4
:101C50000169C943C90708D1C168C943C90704D18B
:101C6000891E0161204600F033F820680169C943EC
:101C7000090609D4C168C943090605D46FF080017B
:101C800001612046FFF7F7FD20680169C943490655
:101C900009D4C168C943490605D46FF04001016108
:101CA000204600F043F820680169C94389060BD437
:101CB000C168C943890607D46FF02001016120463D
:101CC000BDE87040FFF7D8BD70BD70477047000099
:101CD00070B50068114CA0421ED11148FFF7C0FE3C
:101CE000104D686860B10E48FFF7BAFE47F23050F9
:101CF000E06200206860BDE870400948FFF748BE18
:101D000080210948FEF75BFF01F002FE00F032FD82
:101D100041F28830E062EEE770BD00000000014053
:101D20009C0100201800002000040240704770B59C
:101D3000040004D094F83D00002510B106E0012015
:101D400070BD84F83C50204600F022F8242084F82E
:101D50003D002068C16821F40051C160204600F0B8
:101D60004BFE2068016921F49041016120684169BE
:101D700021F02A0141612068C16841F40051C1602D
:101D80002564202084F83D0084F83E00002070BDCA
:101D900010B586B0044614216846FEF74FFA144980
:101DA0002068884221D113480021026842F01002C5
:101DB0000260006800F0100005900E4814380268B8
:101DC00042F001020260006800F0010005904FF44B
:101DD000C06000900220CDE901010320039007209C
:101DE000049069460448FEF7F5FD06B010BD0000FA
:101DF0000010014044380240000002402DE9F84341
:101E0000044690F83D001F4616460D4620284CD14A
:101E1000C5B1BEB194F83C00012846D0012084F839
:101E20003C004FF00008C4F84080212084F83D00B9
:101E3000FEF7D2FEA6848146E684A068B0F5805FF6
:101E400003D004E00120BDE8F883206928B12E46C4
:101E50005FF0000584F83C800EE00026FAE7802160
:101E6000204600F04FFEA0B9AEB116F8010B216874
:101E70004860E08C401EE084E08C4B464FF000024E
:101E800000970028EBD14FF04001204600F03AFEC9
:101E900030B10320D7E735F8020BC0F30800E6E7BE
:101EA000202084F83D000020CDE70220CBE7FEE7AC
:101EB0000448012101800221818003210181042144
:101EC0008181704732010020F8B5044641F0D0000E
:101ED000069F84F84C001821164684F84D101D46C4
:101EE0006A46752102F0BFF89DF80000712801D004
:101EF0000220F8BD14F84C0F00226B2102F062F9A9
:101F00006420FEF72DFD207801226B2102F05AF9A2
:101F1000C820FEF725FD207803221A2102F052F98D
:101F200020780422192102F04DF920786A461B21FD
:101F300002F099F89DF800001B2120F01A022A43B4
:101F40008DF80020207802F03DF920786A461B21A8
:101F500002F089F820786A461C2102F084F89DF886
:101F600000001C2120F0180232438DF80020207858
:101F700002F028F920786A461D2102F074F89DF8D5
:101F800000001D2120F00F0040F003028DF800201A
:101F9000207802F017F920786A461D2102F063F8D4
:101FA00020782222372102F00DF9207801223821F1
:101FB00002F008F9607800220A2102F003F90A20F1
:101FC000FEF7CEFC60780F220A2102F0FBF80A200F
:101FD000FEF7C6FC607800220A2102F0F3F80A201E
:101FE000FEF7BEFC607812220A214C3C02F0EAF8AF
:101FF0000A20FEF7B5FC36B1082E07D0102E11D0FE
:10200000182E07D111E09FED190A01E09FED180A83
:1020100084ED0F0A65B1082D0DD0102D13D0182DA9
:102020000DD113E09FED130AF2E79FED130AEFE7DE
:102030009FED120A01E09FED120A84ED100A47B1EC
:10204000012F0DD108E09FED0F0AF6E79FED0E0A74
:10205000F3E79FED0E0A01E09FED0D0A84ED110AF2
:102060009FED0C0A002084ED120AF8BD008483461F
:1020700000000046000080450000004500000343CA
:102080000000834233330342333383419A99193F2B
:102090009A99193E5CEFA643F0B587B014216846C3
:1020A000FEF7CCF82E480024016841F08001016061
:1020B000016801F080010591016841F001010160B2
:1020C000016801F001010591016841F00201016020
:1020D0000068244E00F002000590002210213046D6
:1020E000FEF775FD204F00224FF4B0613846FEF731
:1020F0006EFD012244F220013846FEF768FD1020F3
:1021000000900125CDE90154694630460394FEF75D
:1021100061FC48F2010000904FF48810CDE9010401
:1021200069463846FEF756FC44F2A0500090CDE9CF
:102130000154694638460394FEF74CFC00221146D0
:102140000620FEF7B7FD0620FEF7A6FD0022114689
:102150002820FEF7AFFD2820FEF79EFD07B0F0BD5A
:10216000303802400000024000040240104810B520
:102170000E4901604FF48271416000218160C160AD
:102180004FF400720161C0E905123022C0E9072155
:10219000416281620A21C162FFF776F8002803D00C
:1021A000BDE81040FEF7D2BB10BD0000003001407A
:1021B00044010020104810B50E4901604FF48271AF
:1021C000416000218160C1604FF400720161C0E98B
:1021D00005121022C0E90721416281620721C16214
:1021E000FFF752F8002803D0BDE81040FEF7AEBB61
:1021F00010BD0000003001404401002010B586B041
:1022000000241848009401940294039404941449FF
:10221000059401604FF4FA71C0E9011442F20F71A4
:10222000C0E9031444618461FFF766FB08B1FEF75F
:102230008DFB4FF48050009069460A48FFF723FC5D
:1022400008B1FEF783FB049404A906480594FFF740
:1022500015FB002801D0FEF779FB06B010BD000089
:10226000000001409C0100200C4810B50A490160A3
:102270004FF4E1314160002181600C22C160C0E96E
:1022800004128161C161FFF752FD002803D0BDE84F
:102290001040FEF75BBB10BD00100140E4010020C0
:1022A000FEE7000008B500F007FA012018230090AF
:1022B0001A4600210348FFF707FEBDE80840014821
:1022C000FEF712BB64020020FEF71AFEFEE770471D
:1022D000F8B5044640684FF48273984221D1A06853
:1022E0004FF48065B0F5004F01D0A8420AD12068B4
:1022F000066826F0400606606068984211D1A06822
:10230000A8420ED000920B4600228021204600F009
:1023100039F8002804D0606D40F02000606503208B
:10232000F8BD00920B4600220121EFE738B50446C4
:102330001248134B0068B0FBF3F04FF47A73584324
:1023400000906068B0F5827F0DD10B4600920022AC
:102350008021204600F016F870B1606D40F020003A
:102360006065032038BD009830B1401E00902068A1
:102370008068C0430006F6D5002038BD4C00002020
:1023800000366E012DE9F8431E4691468846044604
:10239000089DFEF721FC401B351AFEF71DFC074681
:1023A00025480068C0F3CB30684338E0701C37D054
:1023B000FEF712FCC01BA84203D215B1009860B30F
:1023C0002CE02068416821F0E00141606068B0F5D0
:1023D000827F0BD1A068B0F5004F02D0B0F5806FBE
:1023E00004D12068016821F040010160A06AB0F5C5
:1023F000005F09D12068016821F400510160206864
:10240000016841F400510160012084F8510000206E
:1024100084F850000320BDE8F8830025401E00909A
:102420002068816838EA010004D000214945BDD107
:102430000020F0E70121F9E74C000020704770B55B
:1024400016460C46054601F090FD284601F0CCFDED
:1024500000222146284601F0A9FD284601F04AFD48
:102460003146284601F08AFD284601F043FD16203A
:1024700000F0A0F9284601F0B7FD012221462846C8
:1024800001F094FD284601F035FD162000F092F988
:10249000284600F013F80446284601F04BFD284674
:1024A00001F0BAFD204670BD012801D00020704720
:1024B00010210148FEF74CBA0004024070B50646F0
:1024C000002401F041FE082513E000BF01F01EFECC
:1024D0006006040E3046FFF7E7FF08B144F0010440
:1024E000162000F067F9304601F01AFE162000F0C1
:1024F00061F96D1E3046E9D201F048FE204670BDFC
:102500002DE9F0411E4617460D468046012401F094
:102510006BFD00222946404601F048FD404601F08F
:10252000E9FC00B90024162000F044F93946404681
:1025300001F024FD404601F0DDFC00B90024162026
:1025400000F038F93146404600F00EF8404601F000
:10255000D1FC00B90024162000F02CF9404601F00F
:102560005BFD2046BDE8F0812DE9F0410E460746AF
:1025700001F0D6FD0724012505FA04F13140384663
:1025800001F0FEFD162000F015F9384601F0E1FCDF
:10259000641EF1D5BDE8F08100B585B0022003903E
:1025A000012001900002009069460548FEF712FAEA
:1025B0001020009069460348FEF70CFA05B000BDF4
:1025C00000000240000402402DE9F8432C4CFF209B
:1025D000DFF8B0806071A07198F80010A1704D22F2
:1025E00062720026A672009104F10B0598F8013082
:1025F000052225A1284600F0D3FADFF8A49005446F
:10260000002700BF09EB870139F827204B8825A157
:10261000284600F0C5FA7F1CFFB20544042FF1D311
:102620006D1E23A1284600F0BBFA2844051BA5F126
:102630000B0088F80160093DA072202D1DDB0B35D1
:10264000A8B200220E4901F0E0FBA8B2002101F07F
:10265000EDFB002001F03CFB00210F2001F00AFA05
:102660000006F9D5802200210F2001F0A0FB0020F8
:102670002118401C4E725328FADBBDE8F883000095
:1026800054000020180000202626263A3430242545
:102690003034583A25643A2530325824000000007E
:1026A00032010020253034583A25303458230000B8
:1026B000244141230D0A000010B5FFF76DFFBDE86E
:1026C0001040012001F051BCFEF78CBA30B593B038
:1026D00030216846FDF7B2FD14210CA8FDF7AEFDD0
:1026E0001E480024016841F080510160006800F03C
:1026F000805011901A48016821F4404141F4004192
:1027000001600068022500F4404011900120009013
:10271000000401908001CDE9065008200890E020D7
:10272000099004200A900B906846FEF7F7FB08B169
:1027300072B6FEE70F20CDE90C054FF48050CDE9CD
:102740000E4002210CA81094FEF7E8FA08B172B608
:10275000FEE7FEF77DFB13B030BD000040380240BD
:10276000007000400248016841F470010160704748
:1027700088ED00E010B50A4C608870B180210948EE
:10278000FEF71DFAFDF7EAFF6088401C80B260800A
:10279000052801D10020608010BDFFF715FFF3E789
:1027A00018000020000402400148FFF7DBB90000D8
:1027B0009C01002001B5009801E0401E0090002817
:1027C000FBD108BDF0B502681D4B1E4C9F031E4D8A
:1027D0001E4E984207D0B84205D0A04203D0A8426E
:1027E00001D0B04204D122F0700C4A6842EA0C02D7
:1027F000984210D0B8420ED0A0420CD0A8420AD0C5
:10280000B04208D0124CA04205D0124CA04202D0D7
:10281000114CA04203D122F44074CA6822434C698F
:1028200022F08002224302608A68C2620A688262E1
:10283000984201D10969016301214161F0BD0000A5
:10284000000001400004004000080040000C00406F
:1028500000400140004401400048014010B5846838
:1028600042EA032224F47F440A432243826010BDDB
:10287000826822F070020A4342F0070181607047CB
:1028800010B5036A046A24F001040462846924F028
:10289000F00444EA021423F00A020A43846102624B
:1028A00010BD10B5036A23F0100303628369046A44
:1028B00023F4704343EA023224F0A00343EA0111F7
:1028C0008261016210BD000070B500203F4D0146DD
:1028D0002954401C7F28FBD3002000F0E7FF002193
:1028E0000F2001F0C7F83A4C410462D500211020B6
:1028F00001F0C0F8C0F3090136487F29018063D890
:102900000022324801F0E9F8334EA560E879707191
:10291000287AB071A878B070687A412854D101F053
:10292000C3FAC4E9060101F0E7F82C494518284626
:1029300001F018F925F00100010E0002C4E90801B8
:1029400046207072D4E9042306F10B0001F094FADA
:10295000D4E9062306F10F0001F08EFAD4E908232A
:1029600006F1130001F088FA00223146192001F027
:102970004CFA0021192001F059FA012001F0A8F9C0
:10298000A068C17A807A00EBC00202EB001001EB74
:102990008001B6F80500FDF7CBFE10B910A000F0DD
:1029A000EFF800210F2001F065F80006F9D580222C
:1029B00004E0800301D4012060600E4ABDE870404D
:1029C00000210F2001F0F3B970BD0000B20000201B
:1029D000180000201000002054000020C0C2040095
:1029E0004164642064697374616E63652066616923
:1029F0006C0A000000D0272470B504460068016905
:102A0000E26821F44051114301612169A068E26943
:102A100008436169114308432168CA6849F20C639D
:102A20009A430243CA6020684169A26921F4407157
:102A30001143416131492068884202D030498842BF
:102A400002D1FEF71BFA01E0FEF708FAE269002363
:102A5000192164253226B2F5004F626828D0A0FB08
:102A60000101930F9200FDF7B1FB0146B0FBF5F0B9
:102A70006FF01802504301EB800006EB0010B0FB32
:102A8000F5F000F0F002B1FBF5F002EB0012B1FB43
:102A9000F5F06FF01803584301EB800006EB0010CF
:102AA000B0FBF5F000F00F0021681044886070BDA5
:102AB000A0FB010192185B41FDF788FB0146B0FBCA
:102AC000F5F00201B1FBF5F06FF01803584301EB8C
:102AD000800006EBC000B0FBF5F000F0F80002EB60
:102AE0004002B1FBF5F0584301EB800006EBC0005B
:102AF000B0FBF5F000F00700D6E700000010014041
:102B0000001401402DE9F041984617460E46044650
:102B1000069D27E0681C25D02DB1FEF75DF8A0EBDF
:102B20000800A8421ED920680C3050E8001F21F48C
:102B3000D07140E80012002AF5D12068143050E826
:102B4000001F21F0010140E80012002AF5D12020E9
:102B500084F83D0084F83E00002084F83C00032007
:102B6000BDE8F0812068006836EA000004D000204B
:102B7000B842CFD00020F3E70120F9E7FEE70000DC
:102B80000FB4054B10B503A9044A029800F0B4F93C
:102B900010BC5DF814FB0000913E000850000020BE
:102BA0000FB4084B10B504A902AA039800F0A4F9C9
:102BB000044602A9002000F036FD204610BC5DF856
:102BC00014FB0000273600080907090E002804DB63
:102BD00000F1E02080F80014704700F00F0000F1D1
:102BE000E02080F8141D704702E008C8121F08C1D9
:102BF000002AFAD170477047002001E001C1121F7E
:102C0000002AFBD1704738B504466D208DF80000CE
:102C10006B46012240F606012E2001F0D7F841F65E
:102C2000060114B140F2076201E041F207622E2072
:102C300001F0B0F838BD38B504466B4602220021D9
:102C4000362000F02DFF0E2C2CD2DFE804F00F0709
:102C5000152B2B2B2B1D392B2B44494E00208DF887
:102C600000009DF8010000F0FE0019E09DF8000052
:102C700000F0FC00401C04E09DF8000000F0FC00A7
:102C8000801C8DF800000DE09DF8000000F0B300FE
:102C900040F048008DF800009DF8010040F08000F1
:102CA0008DF801006B4601220021362001F08EF8DC
:102CB0000122114636200DF1010301F087F838BDDD
:102CC0009DF8000000F0B3008DF800009DF80100B1
:102CD00000F07F00E4E79DF8010040F00200DFE72C
:102CE0009DF8010000F0FD00DAE79DF8000000F01B
:102CF000CF0040F02000C4E708B503208DF80100A4
:102D000001208DF800006B4602220021362001F0E0
:102D10005DF84FF4004206212D2001F03BF8012020
:102D200000F086FC0120FFF786FF08BD08B5010A08
:102D30008DF801108DF800006B46022204212D2031
:102D400001F044F803208DF800006B4601220621B3
:102D50002D2001F03BF800208DF800006B46012289
:102D600006212D2001F032F80A212D2000F082FEEC
:102D700008BD00002DE9FF5F82B00021DDE90430CD
:102D8000020DDDF840B0034318D044F61050A2F213
:102D9000FF3242431514119801281FD0A5EB0B00F8
:102DA000401C5FEA000A4FF000064E4FDFF83891F2
:102DB000B046504615D5CAF1000413E0119801241D
:102DC0004AA3012801D16FEA0B010298119AC0E9C8
:102DD0000031C0E9024206B0BDE8F09FCBF100002F
:102DE000DFE704460021404A491842EB0450CDE990
:102DF000001012E0E00707D032463B464046494605
:102E0000FDF7CEFA8046894632463B4610461946C3
:102E1000FDF7C6FA06460F466410002CEAD1DDE93C
:102E20000401DDE90023BAF1000F06DAFDF7B8FA74
:102E300042464B46FDF7B4FA05E0FDF723FB424658
:102E40004B46FDF71FFB04460E460022284BFDF7BC
:102E500045FC03D84FF0FF30014607E00022254B28
:102E600020463146FDF7F5F9FDF71FFC102409E077
:102E7000002C0ADB0A220023FDF7A8F9039B30325D
:102E80001A55641E50EA0102F2D1641C039AC4F17F
:102E900011031444119A012A03D0012208430DD1D1
:102EA0000AE0084304D000204FF0110B119072E7A4
:102EB000A3EB0B056D1E0DE05B4504DD4FF000023A
:102EC00005F1010504E003DA4FF00002A5F1010568
:102ED000002AECD002981199C0E90231C0E90045FE
:102EE00079E70000000014400000F03F30000000CF
:102EF0000000F0430000E03F2DE9FF4F95B09B46F6
:102F00008946064600250FE2252877D1002427466A
:102F1000F84A0121059400E0044316F8013F203BE4
:102F200001FA03F01042F7D130782A2811D06FF05F
:102F30002F033078A0F13002092A16D8059A44F000
:102F4000020402EB820203EB42021044761C05905D
:102F5000EFE759F8042B0592002A03DA504244F4B3
:102F60000054059044F00204761C30782E2816D1C7
:102F700016F8010F44F004042A280DD06FF02F0238
:102F80003078A0F13003092B09D807EB870302EB57
:102F90004303C718761CF3E759F8047B761C307896
:102FA0006C280FD006DC4C2817D068280DD06A2872
:102FB00014D104E0742810D07A280FD10DE044F425
:102FC00000140AE044F4801401E044F440147278E0
:102FD000824202D104F58014761C761C3078662873
:102FE0000BD013DC582877D009DC002875D0452891
:102FF000F6D04628F4D047281AD19DE118E063287E
:1030000035D0642879D0652812D195E1702873D025
:1030100008DC6728F1D069286FD06E280DD06F28A2
:1030200006D1B5E073282CD0752875D0782874D0D7
:103030005A46179990476D1C75E1C4F30250022857
:1030400009D003280DD0D9F8001004280DD00D6048
:1030500009F1040967E1D9F80010EA17C1E9005243
:10306000F6E7D9F800100D80F2E70D70F0E719F8D7
:10307000041B8DF8001000208DF80100EA460120A5
:1030800003E059F804AB4FF0FF3061074FF0000147
:1030900002D40DE008F101018846B9420FDA8045FB
:1030A000F8DB1AF808100029F4D108E008F1010152
:1030B00088468142FADB1AF808100029F6D10598F3
:1030C0005B46A0EB080721463846179A00F094FAB1
:1030D000284400EB080507E04DE029E10DE01AF86F
:1030E000010B5A4617999047B8F10108F7D25B4691
:1030F00021463846179A13E142E00A220092C4F3AF
:1031000002524FF0000A022A08D059F804CB032AD1
:103110004FEAEC710AD00DE029E02AE009F107013D
:1031200021F00702F2E802C1914609E00FFA8CFC97
:103130004FEAEC71042A03D14FFA8CFC4FEAEC7190
:10314000002907DA0A460021DCF1000C61EB0201DC
:103150002D2202E0220504D52B228DF80420012225
:1031600003E0E20701D02022F7E7904659E00A2168
:1031700002E010220DE010214FF0000A00910BE058
:1031800010224FF0000A44F004040827009203E0E4
:1031900008224FF0000A0092C4F30252022A05D01E
:1031A00059F804CB0021032A08D009E009F10701EE
:1031B00021F00702F2E802C1914605E01FFA8CFCFB
:1031C000042A01D10CF0FF0C4FF00008220728D58B
:1031D000702806D0009B83F0100353EA0A0305D041
:1031E0000EE040228DF80420012208E05CEA010292
:1031F00006D030228DF804208DF80500022290467A
:10320000009B83F0080353EA0A030AD15CEA010237
:1032100001D1620705D530228DF804204FF0010856
:103220007F1E582804D034A003900EA802900DE011
:1032300036A0F9E753466046009AFCF7C7FF84467C
:103240000398825C0298401E029002705CEA0100C2
:10325000F0D1029806A9081A00F1200A600702D5E9
:1032600024F4803400E00127574502DDA7EB0A0073
:1032700000E0002000EB0A01009005984144401A4C
:103280000590E00306D45B462146179A059800F0A6
:10329000B3F90544002706E001A85A46C05D179916
:1032A00090476D1C7F1C4745F6DBE0030CD55B4661
:1032B0002146179A059800F09FF9054404E0302054
:1032C0005A46179990476D1C0099481E0090002996
:1032D000F5DC08E0029802995A460078491C0291F0
:1032E000179990476D1CBAF10001AAF1010AF1DCAF
:1032F00065E10000092801003031323334353637BA
:103300003839616263646566000000003031323331
:1033100034353637383941424344454600000000D1
:1033200000F058F90544761C307800287FF4ECADA5
:1033300019B02846BDE8F08F620700D4062709F1CE
:10334000070222F0070CFCE80223E14603F00048E4
:103350005FEA080C02D00FF2702C0DE05FEA045C0B
:1033600002D50FF2682C07E05FEAC47C02D00FF2AE
:10337000602C01E0AFF2700C4FF0FF3823F00043F7
:10338000CDF850C065280CD006DC452809D0462869
:103390001DD047283DD13DE0662818D067287ED152
:1033A00038E00021112F01DB112000E0781CCDE96D
:1033B000000106A90EA8FFF7DDFCDDE90F010E9A5A
:1033C00003910021009207F1010A04914DE04FF0B2
:1033D00000400097CDE9011006A90EA8FFF7CAFC2E
:1033E000DDE90F0203920E9B11990022DDF80CA07B
:1033F0000093049211B9791C00EB010AB7EB0A00A3
:1034000004D4C0F1FF3007F1010A0490AAEB0700D1
:10341000019044E0012F00DA01270021112F01DD86
:10342000112000E03846CDE9000106A90EA8FFF7FB
:10343000A1FCDDE90F010E9A039100210491009295
:10344000BA4621070CD40399514500DA8A46BAF1ED
:10345000010F05DD009AAAF10101515C302908D065
:10346000B84202DA10F1040F06DA0121CDE90110A9
:1034700015E0AAF10101E9E7002805DC04990144FF
:103480000491AAEB000102E0411C514500DD8A468F
:103490000499401A401C01904FF000400290200710
:1034A00004D40198504501DBCDF8048000208DF84C
:1034B0004F0002980DF14F07B0F1004F25D02B209F
:1034C0000E9002984FF0020800280CDA4042029059
:1034D0002D200E9007E00A210298FDF742F83031C6
:1034E000029007F8011DB8F10001A8F10108F2DC13
:1034F00002980028EFD1791E0E980870307800F0FD
:10350000200040F0450007F8020D12A8C01B00F192
:1035100007081498007800B1012000EB0A01019817
:1035200001EBE07105984144401A401E0590E0030C
:1035300006D45B462146179A059800F05DF80544CD
:103540001498007818B15A46179990476D1CE003FB
:1035500024D55B462146179A059800F04DF805449E
:103560001CE00498002807DBDDE90301884203DD45
:103570000098405C179901E0179930205A4690470F
:10358000049805F10105401C04900198401E01902B
:1035900004D12E205A46179990476D1CBAF10001AC
:1035A000AAF1010ADDDC05E017F8010B5A4617996C
:1035B00090476D1CB8F10001A8F10108F4DC5B46EE
:1035C0002146179A0598ABE62D0000002B0000005D
:1035D000200000002DE9F041044600251E46174654
:1035E000880404D405E039462020B0476D1C641ED1
:1035F000F9D52846BDE8F0812DE9F04104460025C3
:103600001E469046C80301D5302700E020278804D5
:1036100004D505E041463846B0476D1C641EF9D517
:103620002846BDE8F0810A68531C0B601070704793
:10363000FDF796B97047002070471CB5C2208DF881
:1036400000004FF01F300190684600F00DF91CBDDE
:103650002DE9F84F04460578407978494FF0000984
:10366000C84631F8107061787548491ECEB20163C2
:10367000042D75D0072D73D000218A46217801735F
:103680006F49E2798969002A6CD021F48001816157
:10369000217A4173217A4FF44033826903EA014170
:1036A0000A43834682610021042000F080FB3A46F1
:1036B00042F604012E2000F06DFB3046FFF7A3FA1E
:1036C000604F61490522785D00EB800043180721B7
:1036D0002B2000F07BFB5D49012201EB0A030B214B
:1036E000282000F073FB785D594951F820200C2107
:1036F000282000F05CFBE079564901EB8000A179BD
:1037000030F811200221272000F044FB5248042108
:1037100030F81620272000F03DFBE07938B3A07880
:1037200004282AD028208DF80000202206212720F6
:1037300000F030FB6B4601222621272000F046FBDB
:103740004648E17800EB061050F821200821272098
:1037500000F02DFBB4F80900A0B117E000E001E093
:1037600001218AE741F48001FF08816190E764222A
:103770000621272000F00EFBE2E710208DF8000064
:103780000246D3E741F24100A4F80900B4F8092049
:103790002021272000F0FEFA314F0C2123203A6827
:1037A00000F005FB07EB460004218288232000F08F
:1037B000F1FAA07958B1E0792A4901224318002191
:1037C000212000F003FB4FF003094FF0010805F042
:1037D0000F00290740EA116061784FF4402202EAA5
:1037E00081410843920002EA095108434FF4003234
:1037F00002EA4841084321794FF0F86202EA815118
:103800000843617940EAC16200211F2000F0CFFA2D
:10381000A07861784FF4004308430204CBF81020ED
:10382000E179082043EA41310A430021CBF8102016
:1038300000F0BDFA0020BDE8F88F0000C442000887
:10384000280200204842000868420008864200081A
:103850005042000894420008A0420008A442000818
:10386000884200089042000810B504460346012231
:103870000B212A2000F0AAFA62680021BDE810405E
:103880001E2000F094BA10B50021262000F0F2F8B6
:1038900040F4A8220021262000F089FA00222621E7
:1038A000BDE81040362000F075BA000010B504469F
:1038B0000021042000F0DEF80A4908403CB120F461
:1038C000FF7004F4FF71014341F0010201E020F0B8
:1038D0000102054800218261BDE81040042000F08B
:1038E00066BA0000FFFF47F02802002010B504462A
:1038F0000421362000F0BEF814B140F4006201E06B
:1039000020F400620421BDE81040362000F04FBAD8
:1039100038B540208DF8000000210E2000F0AAF8F4
:103920000446FFF788FE0546002211460E2000F0EF
:103930003EFA6B46012200210D2000F047FA0A4AA8
:1039400000210F2000F033FA00F00AFA224600218D
:103950000E2000F02CFA2846FFF76CFE03490020E9
:1039600081F82C0038BD0000F8FF27242802002031
:103970002DE9FC410746344C04208DF80000002559
:103980006575256384F8255084F82C50A5836563FC
:10399000A56300F081F82D492060884202D0012003
:1039A000BDE8FC810020FFF746F96B4601220021AB
:1039B000242000F00BFA1E20FFF7B8F986B2300A77
:1039C000A0730420FFF7B2F910F0FF0F0CD0022013
:1039D0008DF8040001AB012212212D2000F0F6F930
:1039E000A08B40F48050A0830620FFF79FF9606011
:1039F0000720FFF79BF9A06016F01F00207501D18A
:103A0000102020752846257500F01EFAF80706D00C
:103A1000FFF772F9A08B40F40060A08309E0052154
:103A2000362000F015F820F400720521362000F051
:103A3000B1F90120FFF7FFF80021042000F01AF887
:103A4000A0610020ACE70000280200203001CADE9F
:103A500038B5012489B280B26B46022200F020F80A
:103A600030B99DF800009DF8011000EB012084B2F0
:103A7000204638BD38B5012489B280B26B46042295
:103A800000F00EF830B903216846425C491E02EB93
:103A90000424FAD5204638BD00210846FFF7EABFC6
:103AA00008B551B140F040008DF80000C8B27F2940
:103AB00007D88DF8010002200BE08DF800000120EE
:103AC00007E040F080008DF80100C8098DF8020081
:103AD0000320694600F0D2FA08BD30B414460A4605
:103AE0002146034630BC1120FFF7DABF034605220A
:103AF00000211520FFF7D4BF01210620FFF7BABF30
:103B00000346052200211720FFF7CABF38B5054636
:103B100000208DF8000000F023F94FF48074224655
:103B20000DB14FF4407200210D2000F033F995B132
:103B30006B46012203210F20FFF7B2FF9DF8000022
:103B4000000708D5FFF7E4FE224600210D2000F013
:103B500021F9012038BD002038BD02460021032094
:103B600000F018B9024601210A2000F020B970B512
:103B70000E460446FFF75FFD054600210E20FFF7C5
:103B800079FF0EB1204300E0A043024600210E2041
:103B900000F00DF92846BDE87040FFF74BBD38B581
:103BA0000446C0076B464FF002024FF000014FF091
:103BB00026002DD0FFF774FF9DF80100012220F0B0
:103BC0003C0040F014008DF80100114626200DF154
:103BD000010300F0FBF86B46012202213620FFF7BB
:103BE0005FFF9DF800006B4640F084008DF80000F8
:103BF00001220221362000F0E9F810208DF80000A3
:103C000001208DF80100022228216B4636200BE0AE
:103C1000FFF746FF9DF801006B4620F014008DF879
:103C2000010002220021262000F0D0F8A00711D5C3
:103C30000F208DF800006B4601222A21362000F06B
:103C4000C5F800208DF800006B4601222A2136209D
:103C500000F0BCF838BD02460221032000F09AB8FB
:103C6000024641F604012E2000F094B838B505460E
:103C70006B46012203210420FFF712FF104C75B19F
:103C80002A4600210C2000F085F89DF8000040F045
:103C900010008DF80000A06940F0805008E09DF809
:103CA000000020F010008DF80000A06920F0805086
:103CB000A0616B4601220321042000F087F838BD83
:103CC0002802002002460021182000F063B80000FE
:103CD000F8B500240546214F26468DF800408007A0
:103CE0000BD580208DF800006B46012200210D20AD
:103CF00000F06CF8012087F82C00E8079DF8000020
:103D000020D040F006008DF800006B460122002113
:103D10000D2000F05BF803210F20FFF799FE10F44F
:103D2000816F19D040208DF800006B4601220021E0
:103D30000D2000F04BF80020FFF7D8FD87F82C602D
:103D4000012409E040F002008DF800006B460122DA
:103D500000210D2000F03AF82046F8BD280200208E
:103D60001CB56B46012203210F20FFF799FE9DF839
:103D7000000000F0800100F04000B1EB400F08D0DF
:103D800001208DF80400024601AB03210D2000F054
:103D90001DF81CBD08B589B28DF80020120A8DF8F7
:103DA000012080B26B46022200F010F808BD38B541
:103DB00000236C46E254120A5B1C042BFADB89B226
:103DC00080B22346042200F001F838BD08B551B195
:103DD00040F0C0008DF80000C8B27F2909D88DF8E6
:103DE000010002200DE040F080008DF8000001206D
:103DF00007E040F080008DF80100C8098DF802004E
:103E00000320694600F0E8F908BD10B514460244E5
:103E1000B2F5806F01D9012010BD0B46821E2146EC
:103E20000920FFF7D3FF002010BD0000054A10B5A0
:103E3000126940EA8150024300210820FFF7B7FFD2
:103E4000002010BD2802002038B504466B46012230
:103E50000E212B20FFF724FE9DF8000004F01F0127
:103E600020F01F0001438DF800106B4601220E2147
:103E70002B20FFF7ABFF38BD10B500214254120ACA
:103E800042EA03621B0A491C0429F7DB10BD00004B
:103E900013B54FF6FF73012269460248FDF7AEFFE6
:103EA00000981CBDE40100207CB50024254668462E
:103EB000FFF71CFE042069462D0245EA1465220224
:103EC0000C5C1443401EF7D5204629467CBD7CB5CA
:103ED000002425466846FFF713FE042069462D029C
:103EE00045EA146522020C5C1443401EF7D52046B7
:103EF00029467CBD70B5064600F026F9304600F034
:103F000005F900251620FEF755FC0A243046FEF779
:103F1000CBFA68B1641E002CF8DC304600F000F9E2
:103F2000304600F033F91620FEF744FC284670BDF9
:103F30000125F2E710B5044600F006F9204600F02E
:103F400008F8204600F022F9BDE810401620FEF7E0
:103F500031BC10B5044600F0D9F81620FEF72AFC53
:103F60002046BDE8104000F0DBB810B5044600F074
:103F7000E1F82046BDE8104000F0C8B82DE9F04156
:103F80000E46074600F0CCF80724012505FA04F197
:103F90003140384600F0F4F81620FEF70BFC3846A6
:103FA000FFF7D7FF641EF1D5BDE8F0812DE9F041A0
:103FB000074612B141F0010601E021F0010600F0D0
:103FC000AFF807245FF0010505FA04F131403846E7
:103FD00000F0D6F81620FEF7EDFB3846FFF7B9FFE4
:103FE000641EF1D5BDE8F08110B5044600F0A2F8DA
:103FF000204600F08BF81620FEF7DCFB204600F090
:10400000B5F81620FEF7D6FB204600F089F8BDE88B
:1040100010402C20FEF7CEBB10B5044600F0A6F8E9
:10402000204600F073F81620FEF7C4FB204600F08F
:1040300081F8BDE810401620FEF7BCBBFCF7DAFDA6
:10404000FEF744FBFEF728F8FEF790F8FEF7D6F8E7
:10405000FEF70AF9FCF71EFCFCF7C6FBFEF722F997
:1040600000F0A6F8FCE710B514460A460146012008
:10407000FEF7E5F92070002010BD00002DE9F047A3
:104080009A46154689468046FFF7D5FA0F4E0446F4
:10409000002210213046FCF79AFD4FF47A773B4618
:1040A000424649460A48FDF72EFAAAB23B46514617
:1040B0000748FDF77BF9012210213046FCF787FD08
:1040C0002046FFF7B7FA0020BDE8F0870000024065
:1040D0004401002070B501220B4D94022146284670
:1040E000FCF775FD1420FCF73BFC00222146284616
:1040F000FCF76DFD1420FCF733FC21462846BDE893
:1041000070400122FCF763BD00040240012803D186
:1041100001020248FCF721BC704700000000024089
:10412000012803D101020248FCF714BC70470000CB
:1041300000000240012803D110210248FCF70DBC09
:10414000704700000004024000B585B002210391D1
:1041500000210191012805D11020009069460248F4
:10416000FCF738FC05B000BD00040240012803D173
:1041700010210248FCF7EEBB70470000000402402B
:1041800009B1FFF7D7BFFFF7F1BF000000B585B059
:104190000221039111210191012805D110200090E5
:1041A00069460248FCF716FC05B000BD0004024059
:1041B000FDF77EFEFEF722F80148FDF71BFCFEE747
:1041C0009C01002013460A4610B501460120FEF767
:1041D00097F9002010BD00002DE9F0479A461546DA
:1041E00089468046FFF727FA0F4E04460022102129
:1041F0003046FCF7ECFC4FF0FF373B464246494661
:104200000A48FDF780F9AAB23B4651460748FDF738
:104210007AF9012210213046FCF7D9FC2046FFF73D
:1042200009FA0020BDE8F0870000024044010020A8
:104230000000000000000000010203040607080956
:104240000000000001020304000001020304000555
:10425000405C0000A05C0400C06C0800805C0400AE
:10426000E03F1E00E07D1E00070400091E08054017
:104270000826091040085608054008261D040008B5
:10428000BE1D040008BED8BC07A9022570889B8803
:10429000401008000A00160001000600010002009C
:1042A00087008D002D001A3152001A339A001A35FA
:1042B0001D011A376B003B31BE003B335E013B35BD
:1042C00096023B37000099599959EB518F421E4590
:1042D000142E0080EB51F5283333E13A703DE13A7A
:1042E000C235852BC2353333C235C235AE47E13ACC
:1042F0005138A33051380000184300080000002056
:1043000054000000E82B00086C4300085400002013
:1043100064060000F82B00080000000002020802FA
:104320000909010100210400000000000000000054
:10433000000001000000000000000000000000007C
:10434000000000000000000000000000000000006D
:10435000000000000000000001000000100000004C
:0C436000000000000024F4000000000039
:040000050800019559
:00000001FF
